{"contracts/MedicineInventory.sol":{"MedicineInventory":{"abi":[{"inputs":[{"internalType":"address","name":"admin","type":"address"}],"stateMutability":"nonpayable","type":"constructor"},{"inputs":[],"name":"AccessControlBadConfirmation","type":"error"},{"inputs":[{"internalType":"address","name":"account","type":"address"},{"internalType":"bytes32","name":"neededRole","type":"bytes32"}],"name":"AccessControlUnauthorizedAccount","type":"error"},{"anonymous":false,"inputs":[{"indexed":true,"internalType":"uint256","name":"medicineId","type":"uint256"},{"indexed":true,"internalType":"address","name":"deletedBy","type":"address"},{"indexed":false,"internalType":"uint256","name":"timestamp","type":"uint256"}],"name":"MedicineHashDeleted","type":"event"},{"anonymous":false,"inputs":[{"indexed":true,"internalType":"uint256","name":"medicineId","type":"uint256"},{"indexed":false,"internalType":"bytes32","name":"dataHash","type":"bytes32"},{"indexed":true,"internalType":"address","name":"addedBy","type":"address"},{"indexed":false,"internalType":"uint256","name":"timestamp","type":"uint256"}],"name":"MedicineHashStored","type":"event"},{"anonymous":false,"inputs":[{"indexed":true,"internalType":"uint256","name":"medicineId","type":"uint256"},{"indexed":false,"internalType":"bytes32","name":"oldHash","type":"bytes32"},{"indexed":false,"internalType":"bytes32","name":"newHash","type":"bytes32"},{"indexed":true,"internalType":"address","name":"updatedBy","type":"address"},{"indexed":false,"internalType":"uint256","name":"timestamp","type":"uint256"}],"name":"MedicineHashUpdated","type":"event"},{"anonymous":false,"inputs":[{"indexed":true,"internalType":"uint256","name":"receiptId","type":"uint256"},{"indexed":true,"internalType":"address","name":"deletedBy","type":"address"},{"indexed":false,"internalType":"uint256","name":"timestamp","type":"uint256"}],"name":"ReceiptHashDeleted","type":"event"},{"anonymous":false,"inputs":[{"indexed":true,"internalType":"uint256","name":"receiptId","type":"uint256"},{"indexed":false,"internalType":"bytes32","name":"dataHash","type":"bytes32"},{"indexed":true,"internalType":"address","name":"addedBy","type":"address"},{"indexed":false,"internalType":"uint256","name":"timestamp","type":"uint256"}],"name":"ReceiptHashStored","type":"event"},{"anonymous":false,"inputs":[{"indexed":true,"internalType":"uint256","name":"receiptId","type":"uint256"},{"indexed":false,"internalType":"bytes32","name":"oldHash","type":"bytes32"},{"indexed":false,"internalType":"bytes32","name":"newHash","type":"bytes32"},{"indexed":true,"internalType":"address","name":"updatedBy","type":"address"},{"indexed":false,"internalType":"uint256","name":"timestamp","type":"uint256"}],"name":"ReceiptHashUpdated","type":"event"},{"anonymous":false,"inputs":[{"indexed":true,"internalType":"uint256","name":"removalId","type":"uint256"},{"indexed":true,"internalType":"address","name":"deletedBy","type":"address"},{"indexed":false,"internalType":"uint256","name":"timestamp","type":"uint256"}],"name":"RemovalHashDeleted","type":"event"},{"anonymous":false,"inputs":[{"indexed":true,"internalType":"uint256","name":"removalId","type":"uint256"},{"indexed":false,"internalType":"bytes32","name":"dataHash","type":"bytes32"},{"indexed":true,"internalType":"address","name":"removedBy","type":"address"},{"indexed":false,"internalType":"uint256","name":"timestamp","type":"uint256"}],"name":"RemovalHashStored","type":"event"},{"anonymous":false,"inputs":[{"indexed":true,"internalType":"uint256","name":"removalId","type":"uint256"},{"indexed":false,"internalType":"bytes32","name":"oldHash","type":"bytes32"},{"indexed":false,"internalType":"bytes32","name":"newHash","type":"bytes32"},{"indexed":true,"internalType":"address","name":"updatedBy","type":"address"},{"indexed":false,"internalType":"uint256","name":"timestamp","type":"uint256"}],"name":"RemovalHashUpdated","type":"event"},{"anonymous":false,"inputs":[{"indexed":true,"internalType":"bytes32","name":"role","type":"bytes32"},{"indexed":true,"internalType":"bytes32","name":"previousAdminRole","type":"bytes32"},{"indexed":true,"internalType":"bytes32","name":"newAdminRole","type":"bytes32"}],"name":"RoleAdminChanged","type":"event"},{"anonymous":false,"inputs":[{"indexed":true,"internalType":"bytes32","name":"role","type":"bytes32"},{"indexed":true,"internalType":"address","name":"account","type":"address"},{"indexed":true,"internalType":"address","name":"sender","type":"address"}],"name":"RoleGranted","type":"event"},{"anonymous":false,"inputs":[{"indexed":true,"internalType":"bytes32","name":"role","type":"bytes32"},{"indexed":true,"internalType":"address","name":"account","type":"address"},{"indexed":true,"internalType":"address","name":"sender","type":"address"}],"name":"RoleRevoked","type":"event"},{"anonymous":false,"inputs":[{"indexed":true,"internalType":"address","name":"staff","type":"address"},{"indexed":true,"internalType":"address","name":"admin","type":"address"},{"indexed":false,"internalType":"uint256","name":"timestamp","type":"uint256"}],"name":"StaffRoleGranted","type":"event"},{"anonymous":false,"inputs":[{"indexed":true,"internalType":"address","name":"staff","type":"address"},{"indexed":true,"internalType":"address","name":"admin","type":"address"},{"indexed":false,"internalType":"uint256","name":"timestamp","type":"uint256"}],"name":"StaffRoleRevoked","type":"event"},{"anonymous":false,"inputs":[{"indexed":true,"internalType":"uint256","name":"stockId","type":"uint256"},{"indexed":true,"internalType":"address","name":"deletedBy","type":"address"},{"indexed":false,"internalType":"uint256","name":"timestamp","type":"uint256"}],"name":"StockHashDeleted","type":"event"},{"anonymous":false,"inputs":[{"indexed":true,"internalType":"uint256","name":"stockId","type":"uint256"},{"indexed":false,"internalType":"bytes32","name":"dataHash","type":"bytes32"},{"indexed":true,"internalType":"address","name":"addedBy","type":"address"},{"indexed":false,"internalType":"uint256","name":"timestamp","type":"uint256"}],"name":"StockHashStored","type":"event"},{"anonymous":false,"inputs":[{"indexed":true,"internalType":"uint256","name":"stockId","type":"uint256"},{"indexed":false,"internalType":"bytes32","name":"oldHash","type":"bytes32"},{"indexed":false,"internalType":"bytes32","name":"newHash","type":"bytes32"},{"indexed":true,"internalType":"address","name":"updatedBy","type":"address"},{"indexed":false,"internalType":"uint256","name":"timestamp","type":"uint256"}],"name":"StockHashUpdated","type":"event"},{"inputs":[],"name":"DEFAULT_ADMIN_ROLE","outputs":[{"internalType":"bytes32","name":"","type":"bytes32"}],"stateMutability":"view","type":"function"},{"inputs":[],"name":"STAFF_ROLE","outputs":[{"internalType":"bytes32","name":"","type":"bytes32"}],"stateMutability":"view","type":"function"},{"inputs":[{"internalType":"uint256","name":"_medicineId","type":"uint256"}],"name":"deleteMedicineHash","outputs":[],"stateMutability":"nonpayable","type":"function"},{"inputs":[{"internalType":"uint256","name":"_receiptId","type":"uint256"}],"name":"deleteReceiptHash","outputs":[],"stateMutability":"nonpayable","type":"function"},{"inputs":[{"internalType":"uint256","name":"_removalId","type":"uint256"}],"name":"deleteRemovalHash","outputs":[],"stateMutability":"nonpayable","type":"function"},{"inputs":[{"internalType":"uint256","name":"_stockId","type":"uint256"}],"name":"deleteStockHash","outputs":[],"stateMutability":"nonpayable","type":"function"},{"inputs":[],"name":"getMedicineCount","outputs":[{"internalType":"uint256","name":"","type":"uint256"}],"stateMutability":"view","type":"function"},{"inputs":[{"internalType":"uint256","name":"_medicineId","type":"uint256"}],"name":"getMedicineHash","outputs":[{"internalType":"bytes32","name":"","type":"bytes32"},{"internalType":"address","name":"","type":"address"},{"internalType":"uint256","name":"","type":"uint256"},{"internalType":"bool","name":"","type":"bool"}],"stateMutability":"view","type":"function"},{"inputs":[],"name":"getReceiptCount","outputs":[{"internalType":"uint256","name":"","type":"uint256"}],"stateMutability":"view","type":"function"},{"inputs":[{"internalType":"uint256","name":"_receiptId","type":"uint256"}],"name":"getReceiptHash","outputs":[{"internalType":"bytes32","name":"","type":"bytes32"},{"internalType":"address","name":"","type":"address"},{"internalType":"uint256","name":"","type":"uint256"},{"internalType":"bool","name":"","type":"bool"}],"stateMutability":"view","type":"function"},{"inputs":[],"name":"getRemovalCount","outputs":[{"internalType":"uint256","name":"","type":"uint256"}],"stateMutability":"view","type":"function"},{"inputs":[{"internalType":"uint256","name":"_removalId","type":"uint256"}],"name":"getRemovalHash","outputs":[{"internalType":"bytes32","name":"","type":"bytes32"},{"internalType":"address","name":"","type":"address"},{"internalType":"uint256","name":"","type":"uint256"},{"internalType":"bool","name":"","type":"bool"}],"stateMutability":"view","type":"function"},{"inputs":[{"internalType":"bytes32","name":"role","type":"bytes32"}],"name":"getRoleAdmin","outputs":[{"internalType":"bytes32","name":"","type":"bytes32"}],"stateMutability":"view","type":"function"},{"inputs":[],"name":"getStaffCount","outputs":[{"internalType":"uint256","name":"","type":"uint256"}],"stateMutability":"view","type":"function"},{"inputs":[],"name":"getStaffMembers","outputs":[{"internalType":"address[]","name":"","type":"address[]"}],"stateMutability":"view","type":"function"},{"inputs":[],"name":"getStockCount","outputs":[{"internalType":"uint256","name":"","type":"uint256"}],"stateMutability":"view","type":"function"},{"inputs":[{"internalType":"uint256","name":"_stockId","type":"uint256"}],"name":"getStockHash","outputs":[{"internalType":"bytes32","name":"","type":"bytes32"},{"internalType":"address","name":"","type":"address"},{"internalType":"uint256","name":"","type":"uint256"},{"internalType":"bool","name":"","type":"bool"}],"stateMutability":"view","type":"function"},{"inputs":[{"internalType":"bytes32","name":"role","type":"bytes32"},{"internalType":"address","name":"account","type":"address"}],"name":"grantRole","outputs":[],"stateMutability":"nonpayable","type":"function"},{"inputs":[{"internalType":"address","name":"staff","type":"address"}],"name":"grantStaffRole","outputs":[],"stateMutability":"nonpayable","type":"function"},{"inputs":[{"internalType":"bytes32","name":"role","type":"bytes32"},{"internalType":"address","name":"account","type":"address"}],"name":"hasRole","outputs":[{"internalType":"bool","name":"","type":"bool"}],"stateMutability":"view","type":"function"},{"inputs":[{"internalType":"address","name":"","type":"address"}],"name":"isStaffMember","outputs":[{"internalType":"bool","name":"","type":"bool"}],"stateMutability":"view","type":"function"},{"inputs":[],"name":"medicineCount","outputs":[{"internalType":"uint256","name":"","type":"uint256"}],"stateMutability":"view","type":"function"},{"inputs":[{"internalType":"uint256","name":"","type":"uint256"}],"name":"medicineHashes","outputs":[{"internalType":"bytes32","name":"dataHash","type":"bytes32"},{"internalType":"address","name":"addedBy","type":"address"},{"internalType":"uint256","name":"timestamp","type":"uint256"},{"internalType":"bool","name":"exists","type":"bool"}],"stateMutability":"view","type":"function"},{"inputs":[],"name":"receiptCount","outputs":[{"internalType":"uint256","name":"","type":"uint256"}],"stateMutability":"view","type":"function"},{"inputs":[{"internalType":"uint256","name":"","type":"uint256"}],"name":"receiptHashes","outputs":[{"internalType":"bytes32","name":"dataHash","type":"bytes32"},{"internalType":"address","name":"addedBy","type":"address"},{"internalType":"uint256","name":"timestamp","type":"uint256"},{"internalType":"bool","name":"exists","type":"bool"}],"stateMutability":"view","type":"function"},{"inputs":[],"name":"removalCount","outputs":[{"internalType":"uint256","name":"","type":"uint256"}],"stateMutability":"view","type":"function"},{"inputs":[{"internalType":"uint256","name":"","type":"uint256"}],"name":"removalHashes","outputs":[{"internalType":"bytes32","name":"dataHash","type":"bytes32"},{"internalType":"address","name":"removedBy","type":"address"},{"internalType":"uint256","name":"timestamp","type":"uint256"},{"internalType":"bool","name":"exists","type":"bool"}],"stateMutability":"view","type":"function"},{"inputs":[{"internalType":"bytes32","name":"role","type":"bytes32"},{"internalType":"address","name":"callerConfirmation","type":"address"}],"name":"renounceRole","outputs":[],"stateMutability":"nonpayable","type":"function"},{"inputs":[{"internalType":"bytes32","name":"role","type":"bytes32"},{"internalType":"address","name":"account","type":"address"}],"name":"revokeRole","outputs":[],"stateMutability":"nonpayable","type":"function"},{"inputs":[{"internalType":"address","name":"staff","type":"address"}],"name":"revokeStaffRole","outputs":[],"stateMutability":"nonpayable","type":"function"},{"inputs":[{"internalType":"uint256","name":"","type":"uint256"}],"name":"staffMembers","outputs":[{"internalType":"address","name":"","type":"address"}],"stateMutability":"view","type":"function"},{"inputs":[],"name":"stockCount","outputs":[{"internalType":"uint256","name":"","type":"uint256"}],"stateMutability":"view","type":"function"},{"inputs":[{"internalType":"uint256","name":"","type":"uint256"}],"name":"stockHashes","outputs":[{"internalType":"bytes32","name":"dataHash","type":"bytes32"},{"internalType":"address","name":"addedBy","type":"address"},{"internalType":"uint256","name":"timestamp","type":"uint256"},{"internalType":"bool","name":"exists","type":"bool"}],"stateMutability":"view","type":"function"},{"inputs":[{"internalType":"uint256","name":"_medicineId","type":"uint256"},{"internalType":"bytes32","name":"_dataHash","type":"bytes32"}],"name":"storeMedicineHash","outputs":[],"stateMutability":"nonpayable","type":"function"},{"inputs":[{"internalType":"uint256","name":"_receiptId","type":"uint256"},{"internalType":"bytes32","name":"_dataHash","type":"bytes32"}],"name":"storeReceiptHash","outputs":[],"stateMutability":"nonpayable","type":"function"},{"inputs":[{"internalType":"uint256","name":"_removalId","type":"uint256"},{"internalType":"bytes32","name":"_dataHash","type":"bytes32"}],"name":"storeRemovalHash","outputs":[],"stateMutability":"nonpayable","type":"function"},{"inputs":[{"internalType":"uint256","name":"_stockId","type":"uint256"},{"internalType":"bytes32","name":"_dataHash","type":"bytes32"}],"name":"storeStockHash","outputs":[],"stateMutability":"nonpayable","type":"function"},{"inputs":[{"internalType":"bytes4","name":"interfaceId","type":"bytes4"}],"name":"supportsInterface","outputs":[{"internalType":"bool","name":"","type":"bool"}],"stateMutability":"view","type":"function"},{"inputs":[{"internalType":"uint256","name":"_medicineId","type":"uint256"},{"internalType":"bytes32","name":"_newDataHash","type":"bytes32"}],"name":"updateMedicineHash","outputs":[],"stateMutability":"nonpayable","type":"function"},{"inputs":[{"internalType":"uint256","name":"_receiptId","type":"uint256"},{"internalType":"bytes32","name":"_newDataHash","type":"bytes32"}],"name":"updateReceiptHash","outputs":[],"stateMutability":"nonpayable","type":"function"},{"inputs":[{"internalType":"uint256","name":"_removalId","type":"uint256"},{"internalType":"bytes32","name":"_newDataHash","type":"bytes32"}],"name":"updateRemovalHash","outputs":[],"stateMutability":"nonpayable","type":"function"},{"inputs":[{"internalType":"uint256","name":"_stockId","type":"uint256"},{"internalType":"bytes32","name":"_newDataHash","type":"bytes32"}],"name":"updateStockHash","outputs":[],"stateMutability":"nonpayable","type":"function"},{"inputs":[{"internalType":"uint256","name":"_medicineId","type":"uint256"},{"internalType":"bytes32","name":"_dataHash","type":"bytes32"}],"name":"verifyMedicineHash","outputs":[{"internalType":"bool","name":"","type":"bool"}],"stateMutability":"view","type":"function"},{"inputs":[{"internalType":"uint256","name":"_receiptId","type":"uint256"},{"internalType":"bytes32","name":"_dataHash","type":"bytes32"}],"name":"verifyReceiptHash","outputs":[{"internalType":"bool","name":"","type":"bool"}],"stateMutability":"view","type":"function"},{"inputs":[{"internalType":"uint256","name":"_removalId","type":"uint256"},{"internalType":"bytes32","name":"_dataHash","type":"bytes32"}],"name":"verifyRemovalHash","outputs":[{"internalType":"bool","name":"","type":"bool"}],"stateMutability":"view","type":"function"},{"inputs":[{"internalType":"uint256","name":"_stockId","type":"uint256"},{"internalType":"bytes32","name":"_dataHash","type":"bytes32"}],"name":"verifyStockHash","outputs":[{"internalType":"bool","name":"","type":"bool"}],"stateMutability":"view","type":"function"}],"evm":{"bytecode":{"linkReferences":{},"object":"60803461006857601f611d8f38819003918201601f19168301916001600160401b0383118484101761006d5780849260209460405283398101031261006857516001600160a01b03811681036100685761005890610083565b50604051611c7b90816101148239f35b600080fd5b634e487b7160e01b600052604160045260246000fd5b6001600160a01b031660008181527fad3228b676f7d3cd4284a5443f17f1962b36e491b30a40b2405849e597ba5fb5602052604081205490919060ff1661010f57818052816020526040822081835260205260408220600160ff1982541617905533917f2f8788117e7eff1d82e926ec794901d17c78024a50270940304540a733656f0d8180a4600190565b509056fe6080604081815260048036101561001557600080fd5b600092833560e01c90816301ffc9a7146115aa57508063040875fc14610c5d5780630906a4bf146115825780630bebff061461149257806316d19e05146114475780631bfd175a146113105780632262943a146112d1578063248a9ca3146112a85780632e6ed699146112065780632f2ff15d146111dd578063330290ae1461113f57806335d94dbd146102ef57806336568abe146110f857806343b7e2f0146110ba5780634dafd4901461053e57806355012e1714610f625780636941281b14610f235780636b1ec12714610e815780637c11c9ef14610db35780637cb7ce2e14610c7c5780637f038f3c14610c5d5780638508da5c146106aa57806385290fa114610c3457806391d1485414610bef578063933dd78114610bb4578063a021d93a14610a7d578063a217fddf14610a62578063a7d4b8c814610a18578063a900ee7514610933578063aaf0063f14610865578063b99b070314610846578063c4a2da1214610807578063c4f3f0b3146107e0578063c77c01b414610795578063d237f29b1461074a578063d547741f1461070c578063d8772c12146106c9578063dc08e5ff146106aa578063de3167ac14610682578063e6fe6d94146105b4578063e96219aa1461055d578063eadeb84c1461053e578063eca158c614610409578063f39df99b14610312578063fbf6b4e0146102ef5763fc9eefb01461021d57600080fd5b346102eb57602091826003193601126102e7577f3aa39e499f106c1ef96f6a39a1d095147316460d601c24941bfaff569166015990823592600080516020611c268339815191528652858552818620338752855260ff828720541680156102cc575b6102889061172d565b8386528085526102a060ff60038489200154166118db565b838652845260038186200160ff1981541690556102be600854611973565b60085551924284523393a380f35b5085805285855281862033875285528186205460ff1661027f565b8380fd5b8280fd5b50503461030e578160031936011261030e576020906008549051908152f35b5080fd5b5090346102eb5760203660031901126102eb5761032d611658565b610335611980565b61033e816119fe565b506001600160a01b038116808552600a6020528285205490939060ff1615610391575b505051904282527f6cfd44dd88bb75fb56510ed299e0612e75c6c834fae602cada3944aeb9fc00ef60203393a380f35b60095490680100000000000000008210156103f65750906103bb8260016103d9940160095561166e565b90919060018060a01b038084549260031b9316831b921b1916179055565b818352600a602052808320805460ff191660011790553880610361565b634e487b7160e01b865260419052602485fd5b50346102eb5761041836611627565b929091600080516020611c268339815191528552602090858252828620338752825260ff83872054168015610523575b6104519061172d565b61045c851515611795565b83865280825260ff60038488200154166104e257906104c483927f26701017f45e1dae666f3f7538e200b6383523e5015da5408b93c472457edcd19451906104a3826116bb565b878252338483015242858301526001606083015286895283528388206117d0565b6104cf60085461181e565b600855815194855242908501523393a380f35b915162461bcd60e51b815291820152601b60248201527f52656d6f76616c206861736820616c72656164792065786973747300000000006044820152606490fd5b5085805285825282862033875282528286205460ff16610448565b50503461030e578160031936011261030e576020906005549051908152f35b5082903461030e57602036600319011261030e576105859183913581526001602052206116ed565b906105b082519160018060a01b036020850151169360608282015191015115159151948594856115fe565b0390f35b5090346102eb57602091826003193601126102e7577fda4879bdc7cc25a0cd296112156f2405342008b151a977cdde82f39b9f6007a1903591600080516020611c268339815191528552848452808520338652845260ff81862054168015610667575b6106209061172d565b8285526003845261063960ff6003838820015416611927565b8285526003845260038186200160ff198154169055610659600754611973565b60075551924284523393a380f35b5084805284845280852033865284528085205460ff16610617565b5082903461030e57602036600319011261030e576105859183913581526002602052206116ed565b50503461030e578160031936011261030e576020906006549051908152f35b50346102eb5760203660031901126102eb57359160095483101561070957506106f360209261166e565b905491519160018060a01b039160031b1c168152f35b80fd5b5090346102eb57806003193601126102eb5761074691356107416001610730611642565b9383875286602052862001546119d8565b611bb0565b5080f35b50346102eb5760203660031901126102eb57918192358152600360205220906105b082549160018060a01b036001850154169360ff60036002830154920154169151948594856115fe565b50346102eb5760203660031901126102eb57918192358152600160205220906105b082549160018060a01b036001850154169360ff60036002830154920154169151948594856115fe565b5082903461030e57602036600319011261030e5761058591818492358252602052206116ed565b50503461030e576020918161081b36611627565b92908082526001865261083660ff600385852001541661188f565b8152600185522054149051908152f35b50503461030e578160031936011261030e576020906009549051908152f35b5090346102eb57602091826003193601126102e7577f6c930c742a18361064d6ba002387c312a970c592d39643cf0b8dad33052fa148903591600080516020611c268339815191528552848452808520338652845260ff81862054168015610918575b6108d19061172d565b828552600184526108ea60ff600383882001541661188f565b8285526001845260038186200160ff19815416905561090a600554611973565b60055551924284523393a380f35b5084805284845280852033865284528085205460ff166108c8565b50503461030e576109f7907faf99bac509153fc54d65bf6704ab83532cd5383b36a69225b3820b68480ec15d61096836611627565b939092600080516020611c26833981519152865260036020878152828820338952815260ff838920541680156109fd575b6109a29061172d565b8588528181526109b960ff83858b20015416611927565b6109c4871515611795565b85885252808620908154918681556002429101555191829133964291846040919493926060820195825260208201520152565b0390a380f35b5087805287815282882033895281528288205460ff16610999565b50346102eb5760203660031901126102eb579182829335825260205220906105b082549160018060a01b036001850154169360ff60036002830154920154169151948594856115fe565b50503461030e578160031936011261030e5751908152602090f35b50346102eb57610a8c36611627565b929091600080516020611c268339815191528552602090858252828620338752825260ff83872054168015610b99575b610ac59061172d565b610ad0851515611795565b8386526001825260ff6003848820015416610b585750907fb25ba7f0eb0123b0839d13eecac02f9a5ada3edc27c2c2a4f42a6e13528aaa6191610b3a8251610b17816116bb565b8681523383820152428482015260016060820152858852600183528388206117d0565b610b4560055461181e565b600555815194855242908501523393a380f35b915162461bcd60e51b815291820152601c60248201527f4d65646963696e65206861736820616c726561647920657869737473000000006044820152606490fd5b5085805285825282862033875282528286205460ff16610abc565b50346102eb5781602093610bc736611627565b9390808352818752610be160ff60038686200154166118db565b825285522054149051908152f35b50346102eb57816003193601126102eb578160209360ff92610c0f611642565b903582528186528282206001600160a01b039091168252855220549151911615158152f35b50503461030e578160031936011261030e5760209051600080516020611c268339815191528152f35b50503461030e578160031936011261030e576020906007549051908152f35b50346102eb57610c8b36611627565b929091600080516020611c268339815191528552602090858252828620338752825260ff83872054168015610d98575b610cc49061172d565b610ccf851515611795565b8386526003825260ff6003848820015416610d575750907f5377f9f7648b12d58c8de65e3e3a214c98beb23b36382115266a33100eb4dc0a91610d398251610d16816116bb565b8681523383820152428482015260016060820152858852600383528388206117d0565b610d4460075461181e565b600755815194855242908501523393a380f35b915162461bcd60e51b815291820152601b60248201527f52656365697074206861736820616c72656164792065786973747300000000006044820152606490fd5b5085805285825282862033875282528286205460ff16610cbb565b5090346102eb57602091826003193601126102e7577f3c52415e6ad5d4a55234af1aad2745ffed1da35f855f386d71a7ff2c4a1e89fb903591600080516020611c268339815191528552848452808520338652845260ff81862054168015610e66575b610e1f9061172d565b82855260028452610e3860ff6003838820015416611843565b8285526002845260038186200160ff198154169055610e58600654611973565b60065551924284523393a380f35b5084805284845280852033865284528085205460ff16610e16565b50503461030e576109f7907fa0d0a045580a3cadbb88893d5ec01e886184bc0589f31b6dfdce1ab739ad7bbf610eb636611627565b939092600080516020611c26833981519152865260026020878152828820338952815260ff83892054168015610f08575b610ef09061172d565b8588528181526109b960ff6003858b20015416611843565b5087805287815282882033895281528288205460ff16610ee7565b50503461030e5760209181610f3736611627565b929080825260038652610f5260ff6003858520015416611927565b8152600385522054149051908152f35b5090346102eb5760203660031901126102eb57610f7d611658565b90610f86611980565b610f8f82611b17565b506001600160a01b03918216808552600a6020528185205490929060ff16610fe3575b84838351904282527fdf0e01173dbfc24c434961ec5dc87d3d8b6bcee8167d9ef2d309ee9b366d881460203393a380f35b845b60098054808310156110ae5790839186610ffe8561166e565b949054600395861b1c161461101857505050600101610fe5565b919495969093926000199283810190811161109b57906103bb8561103e61104b9461166e565b9054908a1b1c169161166e565b8354908115611088575001926110608461166e565b81939154921b1b19169055555b818352600a602052808320805460ff19169055819038610fb2565b634e487b7160e01b895260319052602488fd5b634e487b7160e01b8a526011835260248afd5b5050505090915061106d565b50503461030e57602036600319011261030e5760209160ff9082906001600160a01b036110e5611658565b168152600a855220541690519015158152f35b5091903461030e578060031936011261030e57611113611642565b90336001600160a01b038316036111305750610746919235611bb0565b5163334bd91960e11b81528390fd5b50346102eb577fbf00cf9f96896efa34973648af226e6ddb074305b64bb6fe54b96d9162d1f3ad6109f761117236611627565b949093600080516020611c2683398151915287526020878152828820338952815260ff838920541680156111c2575b6111aa9061172d565b8588528181526109b960ff6003858b200154166118db565b5087805287815282882033895281528288205460ff166111a1565b5090346102eb57806003193601126102eb5761074691356112016001610730611642565b611a9e565b50503461030e576109f7907f43d7f3f7f00046aeeeee094d683c6b81143b54a94de648ab27a37961b61cfdb261123b36611627565b939092600080516020611c26833981519152865260016020878152828820338952815260ff8389205416801561128d575b6112759061172d565b8588528181526109b960ff6003858b2001541661188f565b5087805287815282882033895281528288205460ff1661126c565b50346102eb5760203660031901126102eb57816020936001923581528085522001549051908152f35b50503461030e57602091816112e536611627565b92908082526002865261130060ff6003858520015416611843565b8152600285522054149051908152f35b50346102eb5761131f36611627565b929091600080516020611c268339815191528552602090858252828620338752825260ff8387205416801561142c575b6113589061172d565b611363851515611795565b8386526002825260ff60038488200154166113eb5750907f312baae390ad5357071c4194b1724a194e9da0d12eaa60f6992e7cb7159825c0916113cd82516113aa816116bb565b8681523383820152428482015260016060820152858852600283528388206117d0565b6113d860065461181e565b600655815194855242908501523393a380f35b915162461bcd60e51b815291820152601960248201527f53746f636b206861736820616c726561647920657869737473000000000000006044820152606490fd5b5085805285825282862033875282528286205460ff1661134f565b50346102eb5760203660031901126102eb57918192358152600260205220906105b082549160018060a01b036001850154169360ff60036002830154920154169151948594856115fe565b509134610709578060031936011261070957815180916009549384835260208093018095600984527f6e1540171b6c0c960b71a7020d9f60077f6af931a8bbf590da0223dacf75c7af90845b868282106115655750505050849003601f01601f191684019567ffffffffffffffff871185881017611552575085815282865292518583018190528594938501939290915b82811061153257505050500390f35b83516001600160a01b031685528695509381019392810192600101611523565b634e487b7160e01b835260419052602482fd5b83546001600160a01b0316855290930192600192830192016114de565b5082903461030e57602036600319011261030e576105859183913581526003602052206116ed565b925050346102eb5760203660031901126102eb573563ffffffff60e01b81168091036102eb5760209250637965db0b60e01b81149081156115ed575b5015158152f35b6301ffc9a760e01b149050386115e6565b9081526001600160a01b0390911660208201526040810191909152901515606082015260800190565b604090600319011261163d576004359060243590565b600080fd5b602435906001600160a01b038216820361163d57565b600435906001600160a01b038216820361163d57565b6009548110156116a55760096000527f6e1540171b6c0c960b71a7020d9f60077f6af931a8bbf590da0223dacf75c7af0190600090565b634e487b7160e01b600052603260045260246000fd5b6080810190811067ffffffffffffffff8211176116d757604052565b634e487b7160e01b600052604160045260246000fd5b906040516116fa816116bb565b8254815260018301546001600160a01b031660208201526002830154604082015260039092015460ff1615156060830152565b1561173457565b60405162461bcd60e51b815260206004820152603360248201527f416363657373436f6e74726f6c3a2063616c6c6572206d7573742068617665206044820152727374616666206f722061646d696e20726f6c6560681b6064820152608490fd5b1561179c57565b60405162461bcd60e51b815260206004820152600c60248201526b092dcecc2d8d2c840d0c2e6d60a31b6044820152606490fd5b6003606091835181556001810160018060a01b036020860151166bffffffffffffffffffffffff60a01b8254161790556040840151600282015501910151151560ff80198354169116179055565b600019811461182d5760010190565b634e487b7160e01b600052601160045260246000fd5b1561184a57565b60405162461bcd60e51b815260206004820152601960248201527f53746f636b206861736820646f6573206e6f74206578697374000000000000006044820152606490fd5b1561189657565b60405162461bcd60e51b815260206004820152601c60248201527f4d65646963696e65206861736820646f6573206e6f74206578697374000000006044820152606490fd5b156118e257565b60405162461bcd60e51b815260206004820152601b60248201527f52656d6f76616c206861736820646f6573206e6f7420657869737400000000006044820152606490fd5b1561192e57565b60405162461bcd60e51b815260206004820152601b60248201527f52656365697074206861736820646f6573206e6f7420657869737400000000006044820152606490fd5b801561182d576000190190565b3360009081527fad3228b676f7d3cd4284a5443f17f1962b36e491b30a40b2405849e597ba5fb5602052604081205460ff16156119ba5750565b6044906040519063e2517d3f60e01b82523360048301526024820152fd5b80600052600060205260406000203360005260205260ff60406000205416156119ba5750565b6001600160a01b031660008181527fa1372ef7cc522a057d51a286327481a00aa6a3ce8eaad8d58e50bdeda63529616020526040812054909190600080516020611c268339815191529060ff16611a9957808352826020526040832082845260205260408320600160ff198254161790557f2f8788117e7eff1d82e926ec794901d17c78024a50270940304540a733656f0d339380a4600190565b505090565b9060009180835282602052604083209160018060a01b03169182845260205260ff60408420541615600014611a9957808352826020526040832082845260205260408320600160ff198254161790557f2f8788117e7eff1d82e926ec794901d17c78024a50270940304540a733656f0d339380a4600190565b6001600160a01b031660008181527fa1372ef7cc522a057d51a286327481a00aa6a3ce8eaad8d58e50bdeda63529616020526040812054909190600080516020611c268339815191529060ff1615611a995780835282602052604083208284526020526040832060ff1981541690557ff6391f5c32d9c69d2a47ea670b442974b53935d1edc7fd64eb21e047a839171b339380a4600190565b9060009180835282602052604083209160018060a01b03169182845260205260ff604084205416600014611a995780835282602052604083208284526020526040832060ff1981541690557ff6391f5c32d9c69d2a47ea670b442974b53935d1edc7fd64eb21e047a839171b339380a460019056fe5620a1113a72b02a617976b3f6b15600dd7a8b3a916a9ca01e23119d989a0543a2646970667358221220848fbcb95019423d61b5e8afc5d816d475e4ff92fe4c8bbbb37d0775b9a544ef64736f6c63430008170033","opcodes":"PUSH1 0x80 CALLVALUE PUSH2 0x68 JUMPI PUSH1 0x1F PUSH2 0x1D8F CODESIZE DUP2 SWAP1 SUB SWAP2 DUP3 ADD PUSH1 0x1F NOT AND DUP4 ADD SWAP2 PUSH1 0x1 PUSH1 0x1 PUSH1 0x40 SHL SUB DUP4 GT DUP5 DUP5 LT OR PUSH2 0x6D JUMPI DUP1 DUP5 SWAP3 PUSH1 0x20 SWAP5 PUSH1 0x40 MSTORE DUP4 CODECOPY DUP2 ADD SUB SLT PUSH2 0x68 JUMPI MLOAD PUSH1 0x1 PUSH1 0x1 PUSH1 0xA0 SHL SUB DUP2 AND DUP2 SUB PUSH2 0x68 JUMPI PUSH2 0x58 SWAP1 PUSH2 0x83 JUMP JUMPDEST POP PUSH1 0x40 MLOAD PUSH2 0x1C7B SWAP1 DUP2 PUSH2 0x114 DUP3 CODECOPY RETURN JUMPDEST PUSH1 0x0 DUP1 REVERT JUMPDEST PUSH4 0x4E487B71 PUSH1 0xE0 SHL PUSH1 0x0 MSTORE PUSH1 0x41 PUSH1 0x4 MSTORE PUSH1 0x24 PUSH1 0x0 REVERT JUMPDEST PUSH1 0x1 PUSH1 0x1 PUSH1 0xA0 SHL SUB AND PUSH1 0x0 DUP2 DUP2 MSTORE PUSH32 0xAD3228B676F7D3CD4284A5443F17F1962B36E491B30A40B2405849E597BA5FB5 PUSH1 0x20 MSTORE PUSH1 0x40 DUP2 KECCAK256 SLOAD SWAP1 SWAP2 SWAP1 PUSH1 0xFF AND PUSH2 0x10F JUMPI DUP2 DUP1 MSTORE DUP2 PUSH1 0x20 MSTORE PUSH1 0x40 DUP3 KECCAK256 DUP2 DUP4 MSTORE PUSH1 0x20 MSTORE PUSH1 0x40 DUP3 KECCAK256 PUSH1 0x1 PUSH1 0xFF NOT DUP3 SLOAD AND OR SWAP1 SSTORE CALLER SWAP2 PUSH32 0x2F8788117E7EFF1D82E926EC794901D17C78024A50270940304540A733656F0D DUP2 DUP1 LOG4 PUSH1 0x1 SWAP1 JUMP JUMPDEST POP SWAP1 JUMP INVALID PUSH1 0x80 PUSH1 0x40 DUP2 DUP2 MSTORE PUSH1 0x4 DUP1 CALLDATASIZE LT ISZERO PUSH2 0x15 JUMPI PUSH1 0x0 DUP1 REVERT JUMPDEST PUSH1 0x0 SWAP3 DUP4 CALLDATALOAD PUSH1 0xE0 SHR SWAP1 DUP2 PUSH4 0x1FFC9A7 EQ PUSH2 0x15AA JUMPI POP DUP1 PUSH4 0x40875FC EQ PUSH2 0xC5D JUMPI DUP1 PUSH4 0x906A4BF EQ PUSH2 0x1582 JUMPI DUP1 PUSH4 0xBEBFF06 EQ PUSH2 0x1492 JUMPI DUP1 PUSH4 0x16D19E05 EQ PUSH2 0x1447 JUMPI DUP1 PUSH4 0x1BFD175A EQ PUSH2 0x1310 JUMPI DUP1 PUSH4 0x2262943A EQ PUSH2 0x12D1 JUMPI DUP1 PUSH4 0x248A9CA3 EQ PUSH2 0x12A8 JUMPI DUP1 PUSH4 0x2E6ED699 EQ PUSH2 0x1206 JUMPI DUP1 PUSH4 0x2F2FF15D EQ PUSH2 0x11DD JUMPI DUP1 PUSH4 0x330290AE EQ PUSH2 0x113F JUMPI DUP1 PUSH4 0x35D94DBD EQ PUSH2 0x2EF JUMPI DUP1 PUSH4 0x36568ABE EQ PUSH2 0x10F8 JUMPI DUP1 PUSH4 0x43B7E2F0 EQ PUSH2 0x10BA JUMPI DUP1 PUSH4 0x4DAFD490 EQ PUSH2 0x53E JUMPI DUP1 PUSH4 0x55012E17 EQ PUSH2 0xF62 JUMPI DUP1 PUSH4 0x6941281B EQ PUSH2 0xF23 JUMPI DUP1 PUSH4 0x6B1EC127 EQ PUSH2 0xE81 JUMPI DUP1 PUSH4 0x7C11C9EF EQ PUSH2 0xDB3 JUMPI DUP1 PUSH4 0x7CB7CE2E EQ PUSH2 0xC7C JUMPI DUP1 PUSH4 0x7F038F3C EQ PUSH2 0xC5D JUMPI DUP1 PUSH4 0x8508DA5C EQ PUSH2 0x6AA JUMPI DUP1 PUSH4 0x85290FA1 EQ PUSH2 0xC34 JUMPI DUP1 PUSH4 0x91D14854 EQ PUSH2 0xBEF JUMPI DUP1 PUSH4 0x933DD781 EQ PUSH2 0xBB4 JUMPI DUP1 PUSH4 0xA021D93A EQ PUSH2 0xA7D JUMPI DUP1 PUSH4 0xA217FDDF EQ PUSH2 0xA62 JUMPI DUP1 PUSH4 0xA7D4B8C8 EQ PUSH2 0xA18 JUMPI DUP1 PUSH4 0xA900EE75 EQ PUSH2 0x933 JUMPI DUP1 PUSH4 0xAAF0063F EQ PUSH2 0x865 JUMPI DUP1 PUSH4 0xB99B0703 EQ PUSH2 0x846 JUMPI DUP1 PUSH4 0xC4A2DA12 EQ PUSH2 0x807 JUMPI DUP1 PUSH4 0xC4F3F0B3 EQ PUSH2 0x7E0 JUMPI DUP1 PUSH4 0xC77C01B4 EQ PUSH2 0x795 JUMPI DUP1 PUSH4 0xD237F29B EQ PUSH2 0x74A JUMPI DUP1 PUSH4 0xD547741F EQ PUSH2 0x70C JUMPI DUP1 PUSH4 0xD8772C12 EQ PUSH2 0x6C9 JUMPI DUP1 PUSH4 0xDC08E5FF EQ PUSH2 0x6AA JUMPI DUP1 PUSH4 0xDE3167AC EQ PUSH2 0x682 JUMPI DUP1 PUSH4 0xE6FE6D94 EQ PUSH2 0x5B4 JUMPI DUP1 PUSH4 0xE96219AA EQ PUSH2 0x55D JUMPI DUP1 PUSH4 0xEADEB84C EQ PUSH2 0x53E JUMPI DUP1 PUSH4 0xECA158C6 EQ PUSH2 0x409 JUMPI DUP1 PUSH4 0xF39DF99B EQ PUSH2 0x312 JUMPI DUP1 PUSH4 0xFBF6B4E0 EQ PUSH2 0x2EF JUMPI PUSH4 0xFC9EEFB0 EQ PUSH2 0x21D JUMPI PUSH1 0x0 DUP1 REVERT JUMPDEST CALLVALUE PUSH2 0x2EB JUMPI PUSH1 0x20 SWAP2 DUP3 PUSH1 0x3 NOT CALLDATASIZE ADD SLT PUSH2 0x2E7 JUMPI PUSH32 0x3AA39E499F106C1EF96F6A39A1D095147316460D601C24941BFAFF5691660159 SWAP1 DUP3 CALLDATALOAD SWAP3 PUSH1 0x0 DUP1 MLOAD PUSH1 0x20 PUSH2 0x1C26 DUP4 CODECOPY DUP2 MLOAD SWAP2 MSTORE DUP7 MSTORE DUP6 DUP6 MSTORE DUP2 DUP7 KECCAK256 CALLER DUP8 MSTORE DUP6 MSTORE PUSH1 0xFF DUP3 DUP8 KECCAK256 SLOAD AND DUP1 ISZERO PUSH2 0x2CC JUMPI JUMPDEST PUSH2 0x288 SWAP1 PUSH2 0x172D JUMP JUMPDEST DUP4 DUP7 MSTORE DUP1 DUP6 MSTORE PUSH2 0x2A0 PUSH1 0xFF PUSH1 0x3 DUP5 DUP10 KECCAK256 ADD SLOAD AND PUSH2 0x18DB JUMP JUMPDEST DUP4 DUP7 MSTORE DUP5 MSTORE PUSH1 0x3 DUP2 DUP7 KECCAK256 ADD PUSH1 0xFF NOT DUP2 SLOAD AND SWAP1 SSTORE PUSH2 0x2BE PUSH1 0x8 SLOAD PUSH2 0x1973 JUMP JUMPDEST PUSH1 0x8 SSTORE MLOAD SWAP3 TIMESTAMP DUP5 MSTORE CALLER SWAP4 LOG3 DUP1 RETURN JUMPDEST POP DUP6 DUP1 MSTORE DUP6 DUP6 MSTORE DUP2 DUP7 KECCAK256 CALLER DUP8 MSTORE DUP6 MSTORE DUP2 DUP7 KECCAK256 SLOAD PUSH1 0xFF AND PUSH2 0x27F JUMP JUMPDEST DUP4 DUP1 REVERT JUMPDEST DUP3 DUP1 REVERT JUMPDEST POP POP CALLVALUE PUSH2 0x30E JUMPI DUP2 PUSH1 0x3 NOT CALLDATASIZE ADD SLT PUSH2 0x30E JUMPI PUSH1 0x20 SWAP1 PUSH1 0x8 SLOAD SWAP1 MLOAD SWAP1 DUP2 MSTORE RETURN JUMPDEST POP DUP1 REVERT JUMPDEST POP SWAP1 CALLVALUE PUSH2 0x2EB JUMPI PUSH1 0x20 CALLDATASIZE PUSH1 0x3 NOT ADD SLT PUSH2 0x2EB JUMPI PUSH2 0x32D PUSH2 0x1658 JUMP JUMPDEST PUSH2 0x335 PUSH2 0x1980 JUMP JUMPDEST PUSH2 0x33E DUP2 PUSH2 0x19FE JUMP JUMPDEST POP PUSH1 0x1 PUSH1 0x1 PUSH1 0xA0 SHL SUB DUP2 AND DUP1 DUP6 MSTORE PUSH1 0xA PUSH1 0x20 MSTORE DUP3 DUP6 KECCAK256 SLOAD SWAP1 SWAP4 SWAP1 PUSH1 0xFF AND ISZERO PUSH2 0x391 JUMPI JUMPDEST POP POP MLOAD SWAP1 TIMESTAMP DUP3 MSTORE PUSH32 0x6CFD44DD88BB75FB56510ED299E0612E75C6C834FAE602CADA3944AEB9FC00EF PUSH1 0x20 CALLER SWAP4 LOG3 DUP1 RETURN JUMPDEST PUSH1 0x9 SLOAD SWAP1 PUSH9 0x10000000000000000 DUP3 LT ISZERO PUSH2 0x3F6 JUMPI POP SWAP1 PUSH2 0x3BB DUP3 PUSH1 0x1 PUSH2 0x3D9 SWAP5 ADD PUSH1 0x9 SSTORE PUSH2 0x166E JUMP JUMPDEST SWAP1 SWAP2 SWAP1 PUSH1 0x1 DUP1 PUSH1 0xA0 SHL SUB DUP1 DUP5 SLOAD SWAP3 PUSH1 0x3 SHL SWAP4 AND DUP4 SHL SWAP3 SHL NOT AND OR SWAP1 SSTORE JUMP JUMPDEST DUP2 DUP4 MSTORE PUSH1 0xA PUSH1 0x20 MSTORE DUP1 DUP4 KECCAK256 DUP1 SLOAD PUSH1 0xFF NOT AND PUSH1 0x1 OR SWAP1 SSTORE CODESIZE DUP1 PUSH2 0x361 JUMP JUMPDEST PUSH4 0x4E487B71 PUSH1 0xE0 SHL DUP7 MSTORE PUSH1 0x41 SWAP1 MSTORE PUSH1 0x24 DUP6 REVERT JUMPDEST POP CALLVALUE PUSH2 0x2EB JUMPI PUSH2 0x418 CALLDATASIZE PUSH2 0x1627 JUMP JUMPDEST SWAP3 SWAP1 SWAP2 PUSH1 0x0 DUP1 MLOAD PUSH1 0x20 PUSH2 0x1C26 DUP4 CODECOPY DUP2 MLOAD SWAP2 MSTORE DUP6 MSTORE PUSH1 0x20 SWAP1 DUP6 DUP3 MSTORE DUP3 DUP7 KECCAK256 CALLER DUP8 MSTORE DUP3 MSTORE PUSH1 0xFF DUP4 DUP8 KECCAK256 SLOAD AND DUP1 ISZERO PUSH2 0x523 JUMPI JUMPDEST PUSH2 0x451 SWAP1 PUSH2 0x172D JUMP JUMPDEST PUSH2 0x45C DUP6 ISZERO ISZERO PUSH2 0x1795 JUMP JUMPDEST DUP4 DUP7 MSTORE DUP1 DUP3 MSTORE PUSH1 0xFF PUSH1 0x3 DUP5 DUP9 KECCAK256 ADD SLOAD AND PUSH2 0x4E2 JUMPI SWAP1 PUSH2 0x4C4 DUP4 SWAP3 PUSH32 0x26701017F45E1DAE666F3F7538E200B6383523E5015DA5408B93C472457EDCD1 SWAP5 MLOAD SWAP1 PUSH2 0x4A3 DUP3 PUSH2 0x16BB JUMP JUMPDEST DUP8 DUP3 MSTORE CALLER DUP5 DUP4 ADD MSTORE TIMESTAMP DUP6 DUP4 ADD MSTORE PUSH1 0x1 PUSH1 0x60 DUP4 ADD MSTORE DUP7 DUP10 MSTORE DUP4 MSTORE DUP4 DUP9 KECCAK256 PUSH2 0x17D0 JUMP JUMPDEST PUSH2 0x4CF PUSH1 0x8 SLOAD PUSH2 0x181E JUMP JUMPDEST PUSH1 0x8 SSTORE DUP2 MLOAD SWAP5 DUP6 MSTORE TIMESTAMP SWAP1 DUP6 ADD MSTORE CALLER SWAP4 LOG3 DUP1 RETURN JUMPDEST SWAP2 MLOAD PUSH3 0x461BCD PUSH1 0xE5 SHL DUP2 MSTORE SWAP2 DUP3 ADD MSTORE PUSH1 0x1B PUSH1 0x24 DUP3 ADD MSTORE PUSH32 0x52656D6F76616C206861736820616C7265616479206578697374730000000000 PUSH1 0x44 DUP3 ADD MSTORE PUSH1 0x64 SWAP1 REVERT JUMPDEST POP DUP6 DUP1 MSTORE DUP6 DUP3 MSTORE DUP3 DUP7 KECCAK256 CALLER DUP8 MSTORE DUP3 MSTORE DUP3 DUP7 KECCAK256 SLOAD PUSH1 0xFF AND PUSH2 0x448 JUMP JUMPDEST POP POP CALLVALUE PUSH2 0x30E JUMPI DUP2 PUSH1 0x3 NOT CALLDATASIZE ADD SLT PUSH2 0x30E JUMPI PUSH1 0x20 SWAP1 PUSH1 0x5 SLOAD SWAP1 MLOAD SWAP1 DUP2 MSTORE RETURN JUMPDEST POP DUP3 SWAP1 CALLVALUE PUSH2 0x30E JUMPI PUSH1 0x20 CALLDATASIZE PUSH1 0x3 NOT ADD SLT PUSH2 0x30E JUMPI PUSH2 0x585 SWAP2 DUP4 SWAP2 CALLDATALOAD DUP2 MSTORE PUSH1 0x1 PUSH1 0x20 MSTORE KECCAK256 PUSH2 0x16ED JUMP JUMPDEST SWAP1 PUSH2 0x5B0 DUP3 MLOAD SWAP2 PUSH1 0x1 DUP1 PUSH1 0xA0 SHL SUB PUSH1 0x20 DUP6 ADD MLOAD AND SWAP4 PUSH1 0x60 DUP3 DUP3 ADD MLOAD SWAP2 ADD MLOAD ISZERO ISZERO SWAP2 MLOAD SWAP5 DUP6 SWAP5 DUP6 PUSH2 0x15FE JUMP JUMPDEST SUB SWAP1 RETURN JUMPDEST POP SWAP1 CALLVALUE PUSH2 0x2EB JUMPI PUSH1 0x20 SWAP2 DUP3 PUSH1 0x3 NOT CALLDATASIZE ADD SLT PUSH2 0x2E7 JUMPI PUSH32 0xDA4879BDC7CC25A0CD296112156F2405342008B151A977CDDE82F39B9F6007A1 SWAP1 CALLDATALOAD SWAP2 PUSH1 0x0 DUP1 MLOAD PUSH1 0x20 PUSH2 0x1C26 DUP4 CODECOPY DUP2 MLOAD SWAP2 MSTORE DUP6 MSTORE DUP5 DUP5 MSTORE DUP1 DUP6 KECCAK256 CALLER DUP7 MSTORE DUP5 MSTORE PUSH1 0xFF DUP2 DUP7 KECCAK256 SLOAD AND DUP1 ISZERO PUSH2 0x667 JUMPI JUMPDEST PUSH2 0x620 SWAP1 PUSH2 0x172D JUMP JUMPDEST DUP3 DUP6 MSTORE PUSH1 0x3 DUP5 MSTORE PUSH2 0x639 PUSH1 0xFF PUSH1 0x3 DUP4 DUP9 KECCAK256 ADD SLOAD AND PUSH2 0x1927 JUMP JUMPDEST DUP3 DUP6 MSTORE PUSH1 0x3 DUP5 MSTORE PUSH1 0x3 DUP2 DUP7 KECCAK256 ADD PUSH1 0xFF NOT DUP2 SLOAD AND SWAP1 SSTORE PUSH2 0x659 PUSH1 0x7 SLOAD PUSH2 0x1973 JUMP JUMPDEST PUSH1 0x7 SSTORE MLOAD SWAP3 TIMESTAMP DUP5 MSTORE CALLER SWAP4 LOG3 DUP1 RETURN JUMPDEST POP DUP5 DUP1 MSTORE DUP5 DUP5 MSTORE DUP1 DUP6 KECCAK256 CALLER DUP7 MSTORE DUP5 MSTORE DUP1 DUP6 KECCAK256 SLOAD PUSH1 0xFF AND PUSH2 0x617 JUMP JUMPDEST POP DUP3 SWAP1 CALLVALUE PUSH2 0x30E JUMPI PUSH1 0x20 CALLDATASIZE PUSH1 0x3 NOT ADD SLT PUSH2 0x30E JUMPI PUSH2 0x585 SWAP2 DUP4 SWAP2 CALLDATALOAD DUP2 MSTORE PUSH1 0x2 PUSH1 0x20 MSTORE KECCAK256 PUSH2 0x16ED JUMP JUMPDEST POP POP CALLVALUE PUSH2 0x30E JUMPI DUP2 PUSH1 0x3 NOT CALLDATASIZE ADD SLT PUSH2 0x30E JUMPI PUSH1 0x20 SWAP1 PUSH1 0x6 SLOAD SWAP1 MLOAD SWAP1 DUP2 MSTORE RETURN JUMPDEST POP CALLVALUE PUSH2 0x2EB JUMPI PUSH1 0x20 CALLDATASIZE PUSH1 0x3 NOT ADD SLT PUSH2 0x2EB JUMPI CALLDATALOAD SWAP2 PUSH1 0x9 SLOAD DUP4 LT ISZERO PUSH2 0x709 JUMPI POP PUSH2 0x6F3 PUSH1 0x20 SWAP3 PUSH2 0x166E JUMP JUMPDEST SWAP1 SLOAD SWAP2 MLOAD SWAP2 PUSH1 0x1 DUP1 PUSH1 0xA0 SHL SUB SWAP2 PUSH1 0x3 SHL SHR AND DUP2 MSTORE RETURN JUMPDEST DUP1 REVERT JUMPDEST POP SWAP1 CALLVALUE PUSH2 0x2EB JUMPI DUP1 PUSH1 0x3 NOT CALLDATASIZE ADD SLT PUSH2 0x2EB JUMPI PUSH2 0x746 SWAP2 CALLDATALOAD PUSH2 0x741 PUSH1 0x1 PUSH2 0x730 PUSH2 0x1642 JUMP JUMPDEST SWAP4 DUP4 DUP8 MSTORE DUP7 PUSH1 0x20 MSTORE DUP7 KECCAK256 ADD SLOAD PUSH2 0x19D8 JUMP JUMPDEST PUSH2 0x1BB0 JUMP JUMPDEST POP DUP1 RETURN JUMPDEST POP CALLVALUE PUSH2 0x2EB JUMPI PUSH1 0x20 CALLDATASIZE PUSH1 0x3 NOT ADD SLT PUSH2 0x2EB JUMPI SWAP2 DUP2 SWAP3 CALLDATALOAD DUP2 MSTORE PUSH1 0x3 PUSH1 0x20 MSTORE KECCAK256 SWAP1 PUSH2 0x5B0 DUP3 SLOAD SWAP2 PUSH1 0x1 DUP1 PUSH1 0xA0 SHL SUB PUSH1 0x1 DUP6 ADD SLOAD AND SWAP4 PUSH1 0xFF PUSH1 0x3 PUSH1 0x2 DUP4 ADD SLOAD SWAP3 ADD SLOAD AND SWAP2 MLOAD SWAP5 DUP6 SWAP5 DUP6 PUSH2 0x15FE JUMP JUMPDEST POP CALLVALUE PUSH2 0x2EB JUMPI PUSH1 0x20 CALLDATASIZE PUSH1 0x3 NOT ADD SLT PUSH2 0x2EB JUMPI SWAP2 DUP2 SWAP3 CALLDATALOAD DUP2 MSTORE PUSH1 0x1 PUSH1 0x20 MSTORE KECCAK256 SWAP1 PUSH2 0x5B0 DUP3 SLOAD SWAP2 PUSH1 0x1 DUP1 PUSH1 0xA0 SHL SUB PUSH1 0x1 DUP6 ADD SLOAD AND SWAP4 PUSH1 0xFF PUSH1 0x3 PUSH1 0x2 DUP4 ADD SLOAD SWAP3 ADD SLOAD AND SWAP2 MLOAD SWAP5 DUP6 SWAP5 DUP6 PUSH2 0x15FE JUMP JUMPDEST POP DUP3 SWAP1 CALLVALUE PUSH2 0x30E JUMPI PUSH1 0x20 CALLDATASIZE PUSH1 0x3 NOT ADD SLT PUSH2 0x30E JUMPI PUSH2 0x585 SWAP2 DUP2 DUP5 SWAP3 CALLDATALOAD DUP3 MSTORE PUSH1 0x20 MSTORE KECCAK256 PUSH2 0x16ED JUMP JUMPDEST POP POP CALLVALUE PUSH2 0x30E JUMPI PUSH1 0x20 SWAP2 DUP2 PUSH2 0x81B CALLDATASIZE PUSH2 0x1627 JUMP JUMPDEST SWAP3 SWAP1 DUP1 DUP3 MSTORE PUSH1 0x1 DUP7 MSTORE PUSH2 0x836 PUSH1 0xFF PUSH1 0x3 DUP6 DUP6 KECCAK256 ADD SLOAD AND PUSH2 0x188F JUMP JUMPDEST DUP2 MSTORE PUSH1 0x1 DUP6 MSTORE KECCAK256 SLOAD EQ SWAP1 MLOAD SWAP1 DUP2 MSTORE RETURN JUMPDEST POP POP CALLVALUE PUSH2 0x30E JUMPI DUP2 PUSH1 0x3 NOT CALLDATASIZE ADD SLT PUSH2 0x30E JUMPI PUSH1 0x20 SWAP1 PUSH1 0x9 SLOAD SWAP1 MLOAD SWAP1 DUP2 MSTORE RETURN JUMPDEST POP SWAP1 CALLVALUE PUSH2 0x2EB JUMPI PUSH1 0x20 SWAP2 DUP3 PUSH1 0x3 NOT CALLDATASIZE ADD SLT PUSH2 0x2E7 JUMPI PUSH32 0x6C930C742A18361064D6BA002387C312A970C592D39643CF0B8DAD33052FA148 SWAP1 CALLDATALOAD SWAP2 PUSH1 0x0 DUP1 MLOAD PUSH1 0x20 PUSH2 0x1C26 DUP4 CODECOPY DUP2 MLOAD SWAP2 MSTORE DUP6 MSTORE DUP5 DUP5 MSTORE DUP1 DUP6 KECCAK256 CALLER DUP7 MSTORE DUP5 MSTORE PUSH1 0xFF DUP2 DUP7 KECCAK256 SLOAD AND DUP1 ISZERO PUSH2 0x918 JUMPI JUMPDEST PUSH2 0x8D1 SWAP1 PUSH2 0x172D JUMP JUMPDEST DUP3 DUP6 MSTORE PUSH1 0x1 DUP5 MSTORE PUSH2 0x8EA PUSH1 0xFF PUSH1 0x3 DUP4 DUP9 KECCAK256 ADD SLOAD AND PUSH2 0x188F JUMP JUMPDEST DUP3 DUP6 MSTORE PUSH1 0x1 DUP5 MSTORE PUSH1 0x3 DUP2 DUP7 KECCAK256 ADD PUSH1 0xFF NOT DUP2 SLOAD AND SWAP1 SSTORE PUSH2 0x90A PUSH1 0x5 SLOAD PUSH2 0x1973 JUMP JUMPDEST PUSH1 0x5 SSTORE MLOAD SWAP3 TIMESTAMP DUP5 MSTORE CALLER SWAP4 LOG3 DUP1 RETURN JUMPDEST POP DUP5 DUP1 MSTORE DUP5 DUP5 MSTORE DUP1 DUP6 KECCAK256 CALLER DUP7 MSTORE DUP5 MSTORE DUP1 DUP6 KECCAK256 SLOAD PUSH1 0xFF AND PUSH2 0x8C8 JUMP JUMPDEST POP POP CALLVALUE PUSH2 0x30E JUMPI PUSH2 0x9F7 SWAP1 PUSH32 0xAF99BAC509153FC54D65BF6704AB83532CD5383B36A69225B3820B68480EC15D PUSH2 0x968 CALLDATASIZE PUSH2 0x1627 JUMP JUMPDEST SWAP4 SWAP1 SWAP3 PUSH1 0x0 DUP1 MLOAD PUSH1 0x20 PUSH2 0x1C26 DUP4 CODECOPY DUP2 MLOAD SWAP2 MSTORE DUP7 MSTORE PUSH1 0x3 PUSH1 0x20 DUP8 DUP2 MSTORE DUP3 DUP9 KECCAK256 CALLER DUP10 MSTORE DUP2 MSTORE PUSH1 0xFF DUP4 DUP10 KECCAK256 SLOAD AND DUP1 ISZERO PUSH2 0x9FD JUMPI JUMPDEST PUSH2 0x9A2 SWAP1 PUSH2 0x172D JUMP JUMPDEST DUP6 DUP9 MSTORE DUP2 DUP2 MSTORE PUSH2 0x9B9 PUSH1 0xFF DUP4 DUP6 DUP12 KECCAK256 ADD SLOAD AND PUSH2 0x1927 JUMP JUMPDEST PUSH2 0x9C4 DUP8 ISZERO ISZERO PUSH2 0x1795 JUMP JUMPDEST DUP6 DUP9 MSTORE MSTORE DUP1 DUP7 KECCAK256 SWAP1 DUP2 SLOAD SWAP2 DUP7 DUP2 SSTORE PUSH1 0x2 TIMESTAMP SWAP2 ADD SSTORE MLOAD SWAP2 DUP3 SWAP2 CALLER SWAP7 TIMESTAMP SWAP2 DUP5 PUSH1 0x40 SWAP2 SWAP5 SWAP4 SWAP3 PUSH1 0x60 DUP3 ADD SWAP6 DUP3 MSTORE PUSH1 0x20 DUP3 ADD MSTORE ADD MSTORE JUMP JUMPDEST SUB SWAP1 LOG3 DUP1 RETURN JUMPDEST POP DUP8 DUP1 MSTORE DUP8 DUP2 MSTORE DUP3 DUP9 KECCAK256 CALLER DUP10 MSTORE DUP2 MSTORE DUP3 DUP9 KECCAK256 SLOAD PUSH1 0xFF AND PUSH2 0x999 JUMP JUMPDEST POP CALLVALUE PUSH2 0x2EB JUMPI PUSH1 0x20 CALLDATASIZE PUSH1 0x3 NOT ADD SLT PUSH2 0x2EB JUMPI SWAP2 DUP3 DUP3 SWAP4 CALLDATALOAD DUP3 MSTORE PUSH1 0x20 MSTORE KECCAK256 SWAP1 PUSH2 0x5B0 DUP3 SLOAD SWAP2 PUSH1 0x1 DUP1 PUSH1 0xA0 SHL SUB PUSH1 0x1 DUP6 ADD SLOAD AND SWAP4 PUSH1 0xFF PUSH1 0x3 PUSH1 0x2 DUP4 ADD SLOAD SWAP3 ADD SLOAD AND SWAP2 MLOAD SWAP5 DUP6 SWAP5 DUP6 PUSH2 0x15FE JUMP JUMPDEST POP POP CALLVALUE PUSH2 0x30E JUMPI DUP2 PUSH1 0x3 NOT CALLDATASIZE ADD SLT PUSH2 0x30E JUMPI MLOAD SWAP1 DUP2 MSTORE PUSH1 0x20 SWAP1 RETURN JUMPDEST POP CALLVALUE PUSH2 0x2EB JUMPI PUSH2 0xA8C CALLDATASIZE PUSH2 0x1627 JUMP JUMPDEST SWAP3 SWAP1 SWAP2 PUSH1 0x0 DUP1 MLOAD PUSH1 0x20 PUSH2 0x1C26 DUP4 CODECOPY DUP2 MLOAD SWAP2 MSTORE DUP6 MSTORE PUSH1 0x20 SWAP1 DUP6 DUP3 MSTORE DUP3 DUP7 KECCAK256 CALLER DUP8 MSTORE DUP3 MSTORE PUSH1 0xFF DUP4 DUP8 KECCAK256 SLOAD AND DUP1 ISZERO PUSH2 0xB99 JUMPI JUMPDEST PUSH2 0xAC5 SWAP1 PUSH2 0x172D JUMP JUMPDEST PUSH2 0xAD0 DUP6 ISZERO ISZERO PUSH2 0x1795 JUMP JUMPDEST DUP4 DUP7 MSTORE PUSH1 0x1 DUP3 MSTORE PUSH1 0xFF PUSH1 0x3 DUP5 DUP9 KECCAK256 ADD SLOAD AND PUSH2 0xB58 JUMPI POP SWAP1 PUSH32 0xB25BA7F0EB0123B0839D13EECAC02F9A5ADA3EDC27C2C2A4F42A6E13528AAA61 SWAP2 PUSH2 0xB3A DUP3 MLOAD PUSH2 0xB17 DUP2 PUSH2 0x16BB JUMP JUMPDEST DUP7 DUP2 MSTORE CALLER DUP4 DUP3 ADD MSTORE TIMESTAMP DUP5 DUP3 ADD MSTORE PUSH1 0x1 PUSH1 0x60 DUP3 ADD MSTORE DUP6 DUP9 MSTORE PUSH1 0x1 DUP4 MSTORE DUP4 DUP9 KECCAK256 PUSH2 0x17D0 JUMP JUMPDEST PUSH2 0xB45 PUSH1 0x5 SLOAD PUSH2 0x181E JUMP JUMPDEST PUSH1 0x5 SSTORE DUP2 MLOAD SWAP5 DUP6 MSTORE TIMESTAMP SWAP1 DUP6 ADD MSTORE CALLER SWAP4 LOG3 DUP1 RETURN JUMPDEST SWAP2 MLOAD PUSH3 0x461BCD PUSH1 0xE5 SHL DUP2 MSTORE SWAP2 DUP3 ADD MSTORE PUSH1 0x1C PUSH1 0x24 DUP3 ADD MSTORE PUSH32 0x4D65646963696E65206861736820616C72656164792065786973747300000000 PUSH1 0x44 DUP3 ADD MSTORE PUSH1 0x64 SWAP1 REVERT JUMPDEST POP DUP6 DUP1 MSTORE DUP6 DUP3 MSTORE DUP3 DUP7 KECCAK256 CALLER DUP8 MSTORE DUP3 MSTORE DUP3 DUP7 KECCAK256 SLOAD PUSH1 0xFF AND PUSH2 0xABC JUMP JUMPDEST POP CALLVALUE PUSH2 0x2EB JUMPI DUP2 PUSH1 0x20 SWAP4 PUSH2 0xBC7 CALLDATASIZE PUSH2 0x1627 JUMP JUMPDEST SWAP4 SWAP1 DUP1 DUP4 MSTORE DUP2 DUP8 MSTORE PUSH2 0xBE1 PUSH1 0xFF PUSH1 0x3 DUP7 DUP7 KECCAK256 ADD SLOAD AND PUSH2 0x18DB JUMP JUMPDEST DUP3 MSTORE DUP6 MSTORE KECCAK256 SLOAD EQ SWAP1 MLOAD SWAP1 DUP2 MSTORE RETURN JUMPDEST POP CALLVALUE PUSH2 0x2EB JUMPI DUP2 PUSH1 0x3 NOT CALLDATASIZE ADD SLT PUSH2 0x2EB JUMPI DUP2 PUSH1 0x20 SWAP4 PUSH1 0xFF SWAP3 PUSH2 0xC0F PUSH2 0x1642 JUMP JUMPDEST SWAP1 CALLDATALOAD DUP3 MSTORE DUP2 DUP7 MSTORE DUP3 DUP3 KECCAK256 PUSH1 0x1 PUSH1 0x1 PUSH1 0xA0 SHL SUB SWAP1 SWAP2 AND DUP3 MSTORE DUP6 MSTORE KECCAK256 SLOAD SWAP2 MLOAD SWAP2 AND ISZERO ISZERO DUP2 MSTORE RETURN JUMPDEST POP POP CALLVALUE PUSH2 0x30E JUMPI DUP2 PUSH1 0x3 NOT CALLDATASIZE ADD SLT PUSH2 0x30E JUMPI PUSH1 0x20 SWAP1 MLOAD PUSH1 0x0 DUP1 MLOAD PUSH1 0x20 PUSH2 0x1C26 DUP4 CODECOPY DUP2 MLOAD SWAP2 MSTORE DUP2 MSTORE RETURN JUMPDEST POP POP CALLVALUE PUSH2 0x30E JUMPI DUP2 PUSH1 0x3 NOT CALLDATASIZE ADD SLT PUSH2 0x30E JUMPI PUSH1 0x20 SWAP1 PUSH1 0x7 SLOAD SWAP1 MLOAD SWAP1 DUP2 MSTORE RETURN JUMPDEST POP CALLVALUE PUSH2 0x2EB JUMPI PUSH2 0xC8B CALLDATASIZE PUSH2 0x1627 JUMP JUMPDEST SWAP3 SWAP1 SWAP2 PUSH1 0x0 DUP1 MLOAD PUSH1 0x20 PUSH2 0x1C26 DUP4 CODECOPY DUP2 MLOAD SWAP2 MSTORE DUP6 MSTORE PUSH1 0x20 SWAP1 DUP6 DUP3 MSTORE DUP3 DUP7 KECCAK256 CALLER DUP8 MSTORE DUP3 MSTORE PUSH1 0xFF DUP4 DUP8 KECCAK256 SLOAD AND DUP1 ISZERO PUSH2 0xD98 JUMPI JUMPDEST PUSH2 0xCC4 SWAP1 PUSH2 0x172D JUMP JUMPDEST PUSH2 0xCCF DUP6 ISZERO ISZERO PUSH2 0x1795 JUMP JUMPDEST DUP4 DUP7 MSTORE PUSH1 0x3 DUP3 MSTORE PUSH1 0xFF PUSH1 0x3 DUP5 DUP9 KECCAK256 ADD SLOAD AND PUSH2 0xD57 JUMPI POP SWAP1 PUSH32 0x5377F9F7648B12D58C8DE65E3E3A214C98BEB23B36382115266A33100EB4DC0A SWAP2 PUSH2 0xD39 DUP3 MLOAD PUSH2 0xD16 DUP2 PUSH2 0x16BB JUMP JUMPDEST DUP7 DUP2 MSTORE CALLER DUP4 DUP3 ADD MSTORE TIMESTAMP DUP5 DUP3 ADD MSTORE PUSH1 0x1 PUSH1 0x60 DUP3 ADD MSTORE DUP6 DUP9 MSTORE PUSH1 0x3 DUP4 MSTORE DUP4 DUP9 KECCAK256 PUSH2 0x17D0 JUMP JUMPDEST PUSH2 0xD44 PUSH1 0x7 SLOAD PUSH2 0x181E JUMP JUMPDEST PUSH1 0x7 SSTORE DUP2 MLOAD SWAP5 DUP6 MSTORE TIMESTAMP SWAP1 DUP6 ADD MSTORE CALLER SWAP4 LOG3 DUP1 RETURN JUMPDEST SWAP2 MLOAD PUSH3 0x461BCD PUSH1 0xE5 SHL DUP2 MSTORE SWAP2 DUP3 ADD MSTORE PUSH1 0x1B PUSH1 0x24 DUP3 ADD MSTORE PUSH32 0x52656365697074206861736820616C7265616479206578697374730000000000 PUSH1 0x44 DUP3 ADD MSTORE PUSH1 0x64 SWAP1 REVERT JUMPDEST POP DUP6 DUP1 MSTORE DUP6 DUP3 MSTORE DUP3 DUP7 KECCAK256 CALLER DUP8 MSTORE DUP3 MSTORE DUP3 DUP7 KECCAK256 SLOAD PUSH1 0xFF AND PUSH2 0xCBB JUMP JUMPDEST POP SWAP1 CALLVALUE PUSH2 0x2EB JUMPI PUSH1 0x20 SWAP2 DUP3 PUSH1 0x3 NOT CALLDATASIZE ADD SLT PUSH2 0x2E7 JUMPI PUSH32 0x3C52415E6AD5D4A55234AF1AAD2745FFED1DA35F855F386D71A7FF2C4A1E89FB SWAP1 CALLDATALOAD SWAP2 PUSH1 0x0 DUP1 MLOAD PUSH1 0x20 PUSH2 0x1C26 DUP4 CODECOPY DUP2 MLOAD SWAP2 MSTORE DUP6 MSTORE DUP5 DUP5 MSTORE DUP1 DUP6 KECCAK256 CALLER DUP7 MSTORE DUP5 MSTORE PUSH1 0xFF DUP2 DUP7 KECCAK256 SLOAD AND DUP1 ISZERO PUSH2 0xE66 JUMPI JUMPDEST PUSH2 0xE1F SWAP1 PUSH2 0x172D JUMP JUMPDEST DUP3 DUP6 MSTORE PUSH1 0x2 DUP5 MSTORE PUSH2 0xE38 PUSH1 0xFF PUSH1 0x3 DUP4 DUP9 KECCAK256 ADD SLOAD AND PUSH2 0x1843 JUMP JUMPDEST DUP3 DUP6 MSTORE PUSH1 0x2 DUP5 MSTORE PUSH1 0x3 DUP2 DUP7 KECCAK256 ADD PUSH1 0xFF NOT DUP2 SLOAD AND SWAP1 SSTORE PUSH2 0xE58 PUSH1 0x6 SLOAD PUSH2 0x1973 JUMP JUMPDEST PUSH1 0x6 SSTORE MLOAD SWAP3 TIMESTAMP DUP5 MSTORE CALLER SWAP4 LOG3 DUP1 RETURN JUMPDEST POP DUP5 DUP1 MSTORE DUP5 DUP5 MSTORE DUP1 DUP6 KECCAK256 CALLER DUP7 MSTORE DUP5 MSTORE DUP1 DUP6 KECCAK256 SLOAD PUSH1 0xFF AND PUSH2 0xE16 JUMP JUMPDEST POP POP CALLVALUE PUSH2 0x30E JUMPI PUSH2 0x9F7 SWAP1 PUSH32 0xA0D0A045580A3CADBB88893D5EC01E886184BC0589F31B6DFDCE1AB739AD7BBF PUSH2 0xEB6 CALLDATASIZE PUSH2 0x1627 JUMP JUMPDEST SWAP4 SWAP1 SWAP3 PUSH1 0x0 DUP1 MLOAD PUSH1 0x20 PUSH2 0x1C26 DUP4 CODECOPY DUP2 MLOAD SWAP2 MSTORE DUP7 MSTORE PUSH1 0x2 PUSH1 0x20 DUP8 DUP2 MSTORE DUP3 DUP9 KECCAK256 CALLER DUP10 MSTORE DUP2 MSTORE PUSH1 0xFF DUP4 DUP10 KECCAK256 SLOAD AND DUP1 ISZERO PUSH2 0xF08 JUMPI JUMPDEST PUSH2 0xEF0 SWAP1 PUSH2 0x172D JUMP JUMPDEST DUP6 DUP9 MSTORE DUP2 DUP2 MSTORE PUSH2 0x9B9 PUSH1 0xFF PUSH1 0x3 DUP6 DUP12 KECCAK256 ADD SLOAD AND PUSH2 0x1843 JUMP JUMPDEST POP DUP8 DUP1 MSTORE DUP8 DUP2 MSTORE DUP3 DUP9 KECCAK256 CALLER DUP10 MSTORE DUP2 MSTORE DUP3 DUP9 KECCAK256 SLOAD PUSH1 0xFF AND PUSH2 0xEE7 JUMP JUMPDEST POP POP CALLVALUE PUSH2 0x30E JUMPI PUSH1 0x20 SWAP2 DUP2 PUSH2 0xF37 CALLDATASIZE PUSH2 0x1627 JUMP JUMPDEST SWAP3 SWAP1 DUP1 DUP3 MSTORE PUSH1 0x3 DUP7 MSTORE PUSH2 0xF52 PUSH1 0xFF PUSH1 0x3 DUP6 DUP6 KECCAK256 ADD SLOAD AND PUSH2 0x1927 JUMP JUMPDEST DUP2 MSTORE PUSH1 0x3 DUP6 MSTORE KECCAK256 SLOAD EQ SWAP1 MLOAD SWAP1 DUP2 MSTORE RETURN JUMPDEST POP SWAP1 CALLVALUE PUSH2 0x2EB JUMPI PUSH1 0x20 CALLDATASIZE PUSH1 0x3 NOT ADD SLT PUSH2 0x2EB JUMPI PUSH2 0xF7D PUSH2 0x1658 JUMP JUMPDEST SWAP1 PUSH2 0xF86 PUSH2 0x1980 JUMP JUMPDEST PUSH2 0xF8F DUP3 PUSH2 0x1B17 JUMP JUMPDEST POP PUSH1 0x1 PUSH1 0x1 PUSH1 0xA0 SHL SUB SWAP2 DUP3 AND DUP1 DUP6 MSTORE PUSH1 0xA PUSH1 0x20 MSTORE DUP2 DUP6 KECCAK256 SLOAD SWAP1 SWAP3 SWAP1 PUSH1 0xFF AND PUSH2 0xFE3 JUMPI JUMPDEST DUP5 DUP4 DUP4 MLOAD SWAP1 TIMESTAMP DUP3 MSTORE PUSH32 0xDF0E01173DBFC24C434961EC5DC87D3D8B6BCEE8167D9EF2D309EE9B366D8814 PUSH1 0x20 CALLER SWAP4 LOG3 DUP1 RETURN JUMPDEST DUP5 JUMPDEST PUSH1 0x9 DUP1 SLOAD DUP1 DUP4 LT ISZERO PUSH2 0x10AE JUMPI SWAP1 DUP4 SWAP2 DUP7 PUSH2 0xFFE DUP6 PUSH2 0x166E JUMP JUMPDEST SWAP5 SWAP1 SLOAD PUSH1 0x3 SWAP6 DUP7 SHL SHR AND EQ PUSH2 0x1018 JUMPI POP POP POP PUSH1 0x1 ADD PUSH2 0xFE5 JUMP JUMPDEST SWAP2 SWAP5 SWAP6 SWAP7 SWAP1 SWAP4 SWAP3 PUSH1 0x0 NOT SWAP3 DUP4 DUP2 ADD SWAP1 DUP2 GT PUSH2 0x109B JUMPI SWAP1 PUSH2 0x3BB DUP6 PUSH2 0x103E PUSH2 0x104B SWAP5 PUSH2 0x166E JUMP JUMPDEST SWAP1 SLOAD SWAP1 DUP11 SHL SHR AND SWAP2 PUSH2 0x166E JUMP JUMPDEST DUP4 SLOAD SWAP1 DUP2 ISZERO PUSH2 0x1088 JUMPI POP ADD SWAP3 PUSH2 0x1060 DUP5 PUSH2 0x166E JUMP JUMPDEST DUP2 SWAP4 SWAP2 SLOAD SWAP3 SHL SHL NOT AND SWAP1 SSTORE SSTORE JUMPDEST DUP2 DUP4 MSTORE PUSH1 0xA PUSH1 0x20 MSTORE DUP1 DUP4 KECCAK256 DUP1 SLOAD PUSH1 0xFF NOT AND SWAP1 SSTORE DUP2 SWAP1 CODESIZE PUSH2 0xFB2 JUMP JUMPDEST PUSH4 0x4E487B71 PUSH1 0xE0 SHL DUP10 MSTORE PUSH1 0x31 SWAP1 MSTORE PUSH1 0x24 DUP9 REVERT JUMPDEST PUSH4 0x4E487B71 PUSH1 0xE0 SHL DUP11 MSTORE PUSH1 0x11 DUP4 MSTORE PUSH1 0x24 DUP11 REVERT JUMPDEST POP POP POP POP SWAP1 SWAP2 POP PUSH2 0x106D JUMP JUMPDEST POP POP CALLVALUE PUSH2 0x30E JUMPI PUSH1 0x20 CALLDATASIZE PUSH1 0x3 NOT ADD SLT PUSH2 0x30E JUMPI PUSH1 0x20 SWAP2 PUSH1 0xFF SWAP1 DUP3 SWAP1 PUSH1 0x1 PUSH1 0x1 PUSH1 0xA0 SHL SUB PUSH2 0x10E5 PUSH2 0x1658 JUMP JUMPDEST AND DUP2 MSTORE PUSH1 0xA DUP6 MSTORE KECCAK256 SLOAD AND SWAP1 MLOAD SWAP1 ISZERO ISZERO DUP2 MSTORE RETURN JUMPDEST POP SWAP2 SWAP1 CALLVALUE PUSH2 0x30E JUMPI DUP1 PUSH1 0x3 NOT CALLDATASIZE ADD SLT PUSH2 0x30E JUMPI PUSH2 0x1113 PUSH2 0x1642 JUMP JUMPDEST SWAP1 CALLER PUSH1 0x1 PUSH1 0x1 PUSH1 0xA0 SHL SUB DUP4 AND SUB PUSH2 0x1130 JUMPI POP PUSH2 0x746 SWAP2 SWAP3 CALLDATALOAD PUSH2 0x1BB0 JUMP JUMPDEST MLOAD PUSH4 0x334BD919 PUSH1 0xE1 SHL DUP2 MSTORE DUP4 SWAP1 REVERT JUMPDEST POP CALLVALUE PUSH2 0x2EB JUMPI PUSH32 0xBF00CF9F96896EFA34973648AF226E6DDB074305B64BB6FE54B96D9162D1F3AD PUSH2 0x9F7 PUSH2 0x1172 CALLDATASIZE PUSH2 0x1627 JUMP JUMPDEST SWAP5 SWAP1 SWAP4 PUSH1 0x0 DUP1 MLOAD PUSH1 0x20 PUSH2 0x1C26 DUP4 CODECOPY DUP2 MLOAD SWAP2 MSTORE DUP8 MSTORE PUSH1 0x20 DUP8 DUP2 MSTORE DUP3 DUP9 KECCAK256 CALLER DUP10 MSTORE DUP2 MSTORE PUSH1 0xFF DUP4 DUP10 KECCAK256 SLOAD AND DUP1 ISZERO PUSH2 0x11C2 JUMPI JUMPDEST PUSH2 0x11AA SWAP1 PUSH2 0x172D JUMP JUMPDEST DUP6 DUP9 MSTORE DUP2 DUP2 MSTORE PUSH2 0x9B9 PUSH1 0xFF PUSH1 0x3 DUP6 DUP12 KECCAK256 ADD SLOAD AND PUSH2 0x18DB JUMP JUMPDEST POP DUP8 DUP1 MSTORE DUP8 DUP2 MSTORE DUP3 DUP9 KECCAK256 CALLER DUP10 MSTORE DUP2 MSTORE DUP3 DUP9 KECCAK256 SLOAD PUSH1 0xFF AND PUSH2 0x11A1 JUMP JUMPDEST POP SWAP1 CALLVALUE PUSH2 0x2EB JUMPI DUP1 PUSH1 0x3 NOT CALLDATASIZE ADD SLT PUSH2 0x2EB JUMPI PUSH2 0x746 SWAP2 CALLDATALOAD PUSH2 0x1201 PUSH1 0x1 PUSH2 0x730 PUSH2 0x1642 JUMP JUMPDEST PUSH2 0x1A9E JUMP JUMPDEST POP POP CALLVALUE PUSH2 0x30E JUMPI PUSH2 0x9F7 SWAP1 PUSH32 0x43D7F3F7F00046AEEEEE094D683C6B81143B54A94DE648AB27A37961B61CFDB2 PUSH2 0x123B CALLDATASIZE PUSH2 0x1627 JUMP JUMPDEST SWAP4 SWAP1 SWAP3 PUSH1 0x0 DUP1 MLOAD PUSH1 0x20 PUSH2 0x1C26 DUP4 CODECOPY DUP2 MLOAD SWAP2 MSTORE DUP7 MSTORE PUSH1 0x1 PUSH1 0x20 DUP8 DUP2 MSTORE DUP3 DUP9 KECCAK256 CALLER DUP10 MSTORE DUP2 MSTORE PUSH1 0xFF DUP4 DUP10 KECCAK256 SLOAD AND DUP1 ISZERO PUSH2 0x128D JUMPI JUMPDEST PUSH2 0x1275 SWAP1 PUSH2 0x172D JUMP JUMPDEST DUP6 DUP9 MSTORE DUP2 DUP2 MSTORE PUSH2 0x9B9 PUSH1 0xFF PUSH1 0x3 DUP6 DUP12 KECCAK256 ADD SLOAD AND PUSH2 0x188F JUMP JUMPDEST POP DUP8 DUP1 MSTORE DUP8 DUP2 MSTORE DUP3 DUP9 KECCAK256 CALLER DUP10 MSTORE DUP2 MSTORE DUP3 DUP9 KECCAK256 SLOAD PUSH1 0xFF AND PUSH2 0x126C JUMP JUMPDEST POP CALLVALUE PUSH2 0x2EB JUMPI PUSH1 0x20 CALLDATASIZE PUSH1 0x3 NOT ADD SLT PUSH2 0x2EB JUMPI DUP2 PUSH1 0x20 SWAP4 PUSH1 0x1 SWAP3 CALLDATALOAD DUP2 MSTORE DUP1 DUP6 MSTORE KECCAK256 ADD SLOAD SWAP1 MLOAD SWAP1 DUP2 MSTORE RETURN JUMPDEST POP POP CALLVALUE PUSH2 0x30E JUMPI PUSH1 0x20 SWAP2 DUP2 PUSH2 0x12E5 CALLDATASIZE PUSH2 0x1627 JUMP JUMPDEST SWAP3 SWAP1 DUP1 DUP3 MSTORE PUSH1 0x2 DUP7 MSTORE PUSH2 0x1300 PUSH1 0xFF PUSH1 0x3 DUP6 DUP6 KECCAK256 ADD SLOAD AND PUSH2 0x1843 JUMP JUMPDEST DUP2 MSTORE PUSH1 0x2 DUP6 MSTORE KECCAK256 SLOAD EQ SWAP1 MLOAD SWAP1 DUP2 MSTORE RETURN JUMPDEST POP CALLVALUE PUSH2 0x2EB JUMPI PUSH2 0x131F CALLDATASIZE PUSH2 0x1627 JUMP JUMPDEST SWAP3 SWAP1 SWAP2 PUSH1 0x0 DUP1 MLOAD PUSH1 0x20 PUSH2 0x1C26 DUP4 CODECOPY DUP2 MLOAD SWAP2 MSTORE DUP6 MSTORE PUSH1 0x20 SWAP1 DUP6 DUP3 MSTORE DUP3 DUP7 KECCAK256 CALLER DUP8 MSTORE DUP3 MSTORE PUSH1 0xFF DUP4 DUP8 KECCAK256 SLOAD AND DUP1 ISZERO PUSH2 0x142C JUMPI JUMPDEST PUSH2 0x1358 SWAP1 PUSH2 0x172D JUMP JUMPDEST PUSH2 0x1363 DUP6 ISZERO ISZERO PUSH2 0x1795 JUMP JUMPDEST DUP4 DUP7 MSTORE PUSH1 0x2 DUP3 MSTORE PUSH1 0xFF PUSH1 0x3 DUP5 DUP9 KECCAK256 ADD SLOAD AND PUSH2 0x13EB JUMPI POP SWAP1 PUSH32 0x312BAAE390AD5357071C4194B1724A194E9DA0D12EAA60F6992E7CB7159825C0 SWAP2 PUSH2 0x13CD DUP3 MLOAD PUSH2 0x13AA DUP2 PUSH2 0x16BB JUMP JUMPDEST DUP7 DUP2 MSTORE CALLER DUP4 DUP3 ADD MSTORE TIMESTAMP DUP5 DUP3 ADD MSTORE PUSH1 0x1 PUSH1 0x60 DUP3 ADD MSTORE DUP6 DUP9 MSTORE PUSH1 0x2 DUP4 MSTORE DUP4 DUP9 KECCAK256 PUSH2 0x17D0 JUMP JUMPDEST PUSH2 0x13D8 PUSH1 0x6 SLOAD PUSH2 0x181E JUMP JUMPDEST PUSH1 0x6 SSTORE DUP2 MLOAD SWAP5 DUP6 MSTORE TIMESTAMP SWAP1 DUP6 ADD MSTORE CALLER SWAP4 LOG3 DUP1 RETURN JUMPDEST SWAP2 MLOAD PUSH3 0x461BCD PUSH1 0xE5 SHL DUP2 MSTORE SWAP2 DUP3 ADD MSTORE PUSH1 0x19 PUSH1 0x24 DUP3 ADD MSTORE PUSH32 0x53746F636B206861736820616C72656164792065786973747300000000000000 PUSH1 0x44 DUP3 ADD MSTORE PUSH1 0x64 SWAP1 REVERT JUMPDEST POP DUP6 DUP1 MSTORE DUP6 DUP3 MSTORE DUP3 DUP7 KECCAK256 CALLER DUP8 MSTORE DUP3 MSTORE DUP3 DUP7 KECCAK256 SLOAD PUSH1 0xFF AND PUSH2 0x134F JUMP JUMPDEST POP CALLVALUE PUSH2 0x2EB JUMPI PUSH1 0x20 CALLDATASIZE PUSH1 0x3 NOT ADD SLT PUSH2 0x2EB JUMPI SWAP2 DUP2 SWAP3 CALLDATALOAD DUP2 MSTORE PUSH1 0x2 PUSH1 0x20 MSTORE KECCAK256 SWAP1 PUSH2 0x5B0 DUP3 SLOAD SWAP2 PUSH1 0x1 DUP1 PUSH1 0xA0 SHL SUB PUSH1 0x1 DUP6 ADD SLOAD AND SWAP4 PUSH1 0xFF PUSH1 0x3 PUSH1 0x2 DUP4 ADD SLOAD SWAP3 ADD SLOAD AND SWAP2 MLOAD SWAP5 DUP6 SWAP5 DUP6 PUSH2 0x15FE JUMP JUMPDEST POP SWAP2 CALLVALUE PUSH2 0x709 JUMPI DUP1 PUSH1 0x3 NOT CALLDATASIZE ADD SLT PUSH2 0x709 JUMPI DUP2 MLOAD DUP1 SWAP2 PUSH1 0x9 SLOAD SWAP4 DUP5 DUP4 MSTORE PUSH1 0x20 DUP1 SWAP4 ADD DUP1 SWAP6 PUSH1 0x9 DUP5 MSTORE PUSH32 0x6E1540171B6C0C960B71A7020D9F60077F6AF931A8BBF590DA0223DACF75C7AF SWAP1 DUP5 JUMPDEST DUP7 DUP3 DUP3 LT PUSH2 0x1565 JUMPI POP POP POP POP DUP5 SWAP1 SUB PUSH1 0x1F ADD PUSH1 0x1F NOT AND DUP5 ADD SWAP6 PUSH8 0xFFFFFFFFFFFFFFFF DUP8 GT DUP6 DUP9 LT OR PUSH2 0x1552 JUMPI POP DUP6 DUP2 MSTORE DUP3 DUP7 MSTORE SWAP3 MLOAD DUP6 DUP4 ADD DUP2 SWAP1 MSTORE DUP6 SWAP5 SWAP4 DUP6 ADD SWAP4 SWAP3 SWAP1 SWAP2 JUMPDEST DUP3 DUP2 LT PUSH2 0x1532 JUMPI POP POP POP POP SUB SWAP1 RETURN JUMPDEST DUP4 MLOAD PUSH1 0x1 PUSH1 0x1 PUSH1 0xA0 SHL SUB AND DUP6 MSTORE DUP7 SWAP6 POP SWAP4 DUP2 ADD SWAP4 SWAP3 DUP2 ADD SWAP3 PUSH1 0x1 ADD PUSH2 0x1523 JUMP JUMPDEST PUSH4 0x4E487B71 PUSH1 0xE0 SHL DUP4 MSTORE PUSH1 0x41 SWAP1 MSTORE PUSH1 0x24 DUP3 REVERT JUMPDEST DUP4 SLOAD PUSH1 0x1 PUSH1 0x1 PUSH1 0xA0 SHL SUB AND DUP6 MSTORE SWAP1 SWAP4 ADD SWAP3 PUSH1 0x1 SWAP3 DUP4 ADD SWAP3 ADD PUSH2 0x14DE JUMP JUMPDEST POP DUP3 SWAP1 CALLVALUE PUSH2 0x30E JUMPI PUSH1 0x20 CALLDATASIZE PUSH1 0x3 NOT ADD SLT PUSH2 0x30E JUMPI PUSH2 0x585 SWAP2 DUP4 SWAP2 CALLDATALOAD DUP2 MSTORE PUSH1 0x3 PUSH1 0x20 MSTORE KECCAK256 PUSH2 0x16ED JUMP JUMPDEST SWAP3 POP POP CALLVALUE PUSH2 0x2EB JUMPI PUSH1 0x20 CALLDATASIZE PUSH1 0x3 NOT ADD SLT PUSH2 0x2EB JUMPI CALLDATALOAD PUSH4 0xFFFFFFFF PUSH1 0xE0 SHL DUP2 AND DUP1 SWAP2 SUB PUSH2 0x2EB JUMPI PUSH1 0x20 SWAP3 POP PUSH4 0x7965DB0B PUSH1 0xE0 SHL DUP2 EQ SWAP1 DUP2 ISZERO PUSH2 0x15ED JUMPI JUMPDEST POP ISZERO ISZERO DUP2 MSTORE RETURN JUMPDEST PUSH4 0x1FFC9A7 PUSH1 0xE0 SHL EQ SWAP1 POP CODESIZE PUSH2 0x15E6 JUMP JUMPDEST SWAP1 DUP2 MSTORE PUSH1 0x1 PUSH1 0x1 PUSH1 0xA0 SHL SUB SWAP1 SWAP2 AND PUSH1 0x20 DUP3 ADD MSTORE PUSH1 0x40 DUP2 ADD SWAP2 SWAP1 SWAP2 MSTORE SWAP1 ISZERO ISZERO PUSH1 0x60 DUP3 ADD MSTORE PUSH1 0x80 ADD SWAP1 JUMP JUMPDEST PUSH1 0x40 SWAP1 PUSH1 0x3 NOT ADD SLT PUSH2 0x163D JUMPI PUSH1 0x4 CALLDATALOAD SWAP1 PUSH1 0x24 CALLDATALOAD SWAP1 JUMP JUMPDEST PUSH1 0x0 DUP1 REVERT JUMPDEST PUSH1 0x24 CALLDATALOAD SWAP1 PUSH1 0x1 PUSH1 0x1 PUSH1 0xA0 SHL SUB DUP3 AND DUP3 SUB PUSH2 0x163D JUMPI JUMP JUMPDEST PUSH1 0x4 CALLDATALOAD SWAP1 PUSH1 0x1 PUSH1 0x1 PUSH1 0xA0 SHL SUB DUP3 AND DUP3 SUB PUSH2 0x163D JUMPI JUMP JUMPDEST PUSH1 0x9 SLOAD DUP2 LT ISZERO PUSH2 0x16A5 JUMPI PUSH1 0x9 PUSH1 0x0 MSTORE PUSH32 0x6E1540171B6C0C960B71A7020D9F60077F6AF931A8BBF590DA0223DACF75C7AF ADD SWAP1 PUSH1 0x0 SWAP1 JUMP JUMPDEST PUSH4 0x4E487B71 PUSH1 0xE0 SHL PUSH1 0x0 MSTORE PUSH1 0x32 PUSH1 0x4 MSTORE PUSH1 0x24 PUSH1 0x0 REVERT JUMPDEST PUSH1 0x80 DUP2 ADD SWAP1 DUP2 LT PUSH8 0xFFFFFFFFFFFFFFFF DUP3 GT OR PUSH2 0x16D7 JUMPI PUSH1 0x40 MSTORE JUMP JUMPDEST PUSH4 0x4E487B71 PUSH1 0xE0 SHL PUSH1 0x0 MSTORE PUSH1 0x41 PUSH1 0x4 MSTORE PUSH1 0x24 PUSH1 0x0 REVERT JUMPDEST SWAP1 PUSH1 0x40 MLOAD PUSH2 0x16FA DUP2 PUSH2 0x16BB JUMP JUMPDEST DUP3 SLOAD DUP2 MSTORE PUSH1 0x1 DUP4 ADD SLOAD PUSH1 0x1 PUSH1 0x1 PUSH1 0xA0 SHL SUB AND PUSH1 0x20 DUP3 ADD MSTORE PUSH1 0x2 DUP4 ADD SLOAD PUSH1 0x40 DUP3 ADD MSTORE PUSH1 0x3 SWAP1 SWAP3 ADD SLOAD PUSH1 0xFF AND ISZERO ISZERO PUSH1 0x60 DUP4 ADD MSTORE JUMP JUMPDEST ISZERO PUSH2 0x1734 JUMPI JUMP JUMPDEST PUSH1 0x40 MLOAD PUSH3 0x461BCD PUSH1 0xE5 SHL DUP2 MSTORE PUSH1 0x20 PUSH1 0x4 DUP3 ADD MSTORE PUSH1 0x33 PUSH1 0x24 DUP3 ADD MSTORE PUSH32 0x416363657373436F6E74726F6C3A2063616C6C6572206D757374206861766520 PUSH1 0x44 DUP3 ADD MSTORE PUSH19 0x7374616666206F722061646D696E20726F6C65 PUSH1 0x68 SHL PUSH1 0x64 DUP3 ADD MSTORE PUSH1 0x84 SWAP1 REVERT JUMPDEST ISZERO PUSH2 0x179C JUMPI JUMP JUMPDEST PUSH1 0x40 MLOAD PUSH3 0x461BCD PUSH1 0xE5 SHL DUP2 MSTORE PUSH1 0x20 PUSH1 0x4 DUP3 ADD MSTORE PUSH1 0xC PUSH1 0x24 DUP3 ADD MSTORE PUSH12 0x92DCECC2D8D2C840D0C2E6D PUSH1 0xA3 SHL PUSH1 0x44 DUP3 ADD MSTORE PUSH1 0x64 SWAP1 REVERT JUMPDEST PUSH1 0x3 PUSH1 0x60 SWAP2 DUP4 MLOAD DUP2 SSTORE PUSH1 0x1 DUP2 ADD PUSH1 0x1 DUP1 PUSH1 0xA0 SHL SUB PUSH1 0x20 DUP7 ADD MLOAD AND PUSH12 0xFFFFFFFFFFFFFFFFFFFFFFFF PUSH1 0xA0 SHL DUP3 SLOAD AND OR SWAP1 SSTORE PUSH1 0x40 DUP5 ADD MLOAD PUSH1 0x2 DUP3 ADD SSTORE ADD SWAP2 ADD MLOAD ISZERO ISZERO PUSH1 0xFF DUP1 NOT DUP4 SLOAD AND SWAP2 AND OR SWAP1 SSTORE JUMP JUMPDEST PUSH1 0x0 NOT DUP2 EQ PUSH2 0x182D JUMPI PUSH1 0x1 ADD SWAP1 JUMP JUMPDEST PUSH4 0x4E487B71 PUSH1 0xE0 SHL PUSH1 0x0 MSTORE PUSH1 0x11 PUSH1 0x4 MSTORE PUSH1 0x24 PUSH1 0x0 REVERT JUMPDEST ISZERO PUSH2 0x184A JUMPI JUMP JUMPDEST PUSH1 0x40 MLOAD PUSH3 0x461BCD PUSH1 0xE5 SHL DUP2 MSTORE PUSH1 0x20 PUSH1 0x4 DUP3 ADD MSTORE PUSH1 0x19 PUSH1 0x24 DUP3 ADD MSTORE PUSH32 0x53746F636B206861736820646F6573206E6F7420657869737400000000000000 PUSH1 0x44 DUP3 ADD MSTORE PUSH1 0x64 SWAP1 REVERT JUMPDEST ISZERO PUSH2 0x1896 JUMPI JUMP JUMPDEST PUSH1 0x40 MLOAD PUSH3 0x461BCD PUSH1 0xE5 SHL DUP2 MSTORE PUSH1 0x20 PUSH1 0x4 DUP3 ADD MSTORE PUSH1 0x1C PUSH1 0x24 DUP3 ADD MSTORE PUSH32 0x4D65646963696E65206861736820646F6573206E6F7420657869737400000000 PUSH1 0x44 DUP3 ADD MSTORE PUSH1 0x64 SWAP1 REVERT JUMPDEST ISZERO PUSH2 0x18E2 JUMPI JUMP JUMPDEST PUSH1 0x40 MLOAD PUSH3 0x461BCD PUSH1 0xE5 SHL DUP2 MSTORE PUSH1 0x20 PUSH1 0x4 DUP3 ADD MSTORE PUSH1 0x1B PUSH1 0x24 DUP3 ADD MSTORE PUSH32 0x52656D6F76616C206861736820646F6573206E6F742065786973740000000000 PUSH1 0x44 DUP3 ADD MSTORE PUSH1 0x64 SWAP1 REVERT JUMPDEST ISZERO PUSH2 0x192E JUMPI JUMP JUMPDEST PUSH1 0x40 MLOAD PUSH3 0x461BCD PUSH1 0xE5 SHL DUP2 MSTORE PUSH1 0x20 PUSH1 0x4 DUP3 ADD MSTORE PUSH1 0x1B PUSH1 0x24 DUP3 ADD MSTORE PUSH32 0x52656365697074206861736820646F6573206E6F742065786973740000000000 PUSH1 0x44 DUP3 ADD MSTORE PUSH1 0x64 SWAP1 REVERT JUMPDEST DUP1 ISZERO PUSH2 0x182D JUMPI PUSH1 0x0 NOT ADD SWAP1 JUMP JUMPDEST CALLER PUSH1 0x0 SWAP1 DUP2 MSTORE PUSH32 0xAD3228B676F7D3CD4284A5443F17F1962B36E491B30A40B2405849E597BA5FB5 PUSH1 0x20 MSTORE PUSH1 0x40 DUP2 KECCAK256 SLOAD PUSH1 0xFF AND ISZERO PUSH2 0x19BA JUMPI POP JUMP JUMPDEST PUSH1 0x44 SWAP1 PUSH1 0x40 MLOAD SWAP1 PUSH4 0xE2517D3F PUSH1 0xE0 SHL DUP3 MSTORE CALLER PUSH1 0x4 DUP4 ADD MSTORE PUSH1 0x24 DUP3 ADD MSTORE REVERT JUMPDEST DUP1 PUSH1 0x0 MSTORE PUSH1 0x0 PUSH1 0x20 MSTORE PUSH1 0x40 PUSH1 0x0 KECCAK256 CALLER PUSH1 0x0 MSTORE PUSH1 0x20 MSTORE PUSH1 0xFF PUSH1 0x40 PUSH1 0x0 KECCAK256 SLOAD AND ISZERO PUSH2 0x19BA JUMPI POP JUMP JUMPDEST PUSH1 0x1 PUSH1 0x1 PUSH1 0xA0 SHL SUB AND PUSH1 0x0 DUP2 DUP2 MSTORE PUSH32 0xA1372EF7CC522A057D51A286327481A00AA6A3CE8EAAD8D58E50BDEDA6352961 PUSH1 0x20 MSTORE PUSH1 0x40 DUP2 KECCAK256 SLOAD SWAP1 SWAP2 SWAP1 PUSH1 0x0 DUP1 MLOAD PUSH1 0x20 PUSH2 0x1C26 DUP4 CODECOPY DUP2 MLOAD SWAP2 MSTORE SWAP1 PUSH1 0xFF AND PUSH2 0x1A99 JUMPI DUP1 DUP4 MSTORE DUP3 PUSH1 0x20 MSTORE PUSH1 0x40 DUP4 KECCAK256 DUP3 DUP5 MSTORE PUSH1 0x20 MSTORE PUSH1 0x40 DUP4 KECCAK256 PUSH1 0x1 PUSH1 0xFF NOT DUP3 SLOAD AND OR SWAP1 SSTORE PUSH32 0x2F8788117E7EFF1D82E926EC794901D17C78024A50270940304540A733656F0D CALLER SWAP4 DUP1 LOG4 PUSH1 0x1 SWAP1 JUMP JUMPDEST POP POP SWAP1 JUMP JUMPDEST SWAP1 PUSH1 0x0 SWAP2 DUP1 DUP4 MSTORE DUP3 PUSH1 0x20 MSTORE PUSH1 0x40 DUP4 KECCAK256 SWAP2 PUSH1 0x1 DUP1 PUSH1 0xA0 SHL SUB AND SWAP2 DUP3 DUP5 MSTORE PUSH1 0x20 MSTORE PUSH1 0xFF PUSH1 0x40 DUP5 KECCAK256 SLOAD AND ISZERO PUSH1 0x0 EQ PUSH2 0x1A99 JUMPI DUP1 DUP4 MSTORE DUP3 PUSH1 0x20 MSTORE PUSH1 0x40 DUP4 KECCAK256 DUP3 DUP5 MSTORE PUSH1 0x20 MSTORE PUSH1 0x40 DUP4 KECCAK256 PUSH1 0x1 PUSH1 0xFF NOT DUP3 SLOAD AND OR SWAP1 SSTORE PUSH32 0x2F8788117E7EFF1D82E926EC794901D17C78024A50270940304540A733656F0D CALLER SWAP4 DUP1 LOG4 PUSH1 0x1 SWAP1 JUMP JUMPDEST PUSH1 0x1 PUSH1 0x1 PUSH1 0xA0 SHL SUB AND PUSH1 0x0 DUP2 DUP2 MSTORE PUSH32 0xA1372EF7CC522A057D51A286327481A00AA6A3CE8EAAD8D58E50BDEDA6352961 PUSH1 0x20 MSTORE PUSH1 0x40 DUP2 KECCAK256 SLOAD SWAP1 SWAP2 SWAP1 PUSH1 0x0 DUP1 MLOAD PUSH1 0x20 PUSH2 0x1C26 DUP4 CODECOPY DUP2 MLOAD SWAP2 MSTORE SWAP1 PUSH1 0xFF AND ISZERO PUSH2 0x1A99 JUMPI DUP1 DUP4 MSTORE DUP3 PUSH1 0x20 MSTORE PUSH1 0x40 DUP4 KECCAK256 DUP3 DUP5 MSTORE PUSH1 0x20 MSTORE PUSH1 0x40 DUP4 KECCAK256 PUSH1 0xFF NOT DUP2 SLOAD AND SWAP1 SSTORE PUSH32 0xF6391F5C32D9C69D2A47EA670B442974B53935D1EDC7FD64EB21E047A839171B CALLER SWAP4 DUP1 LOG4 PUSH1 0x1 SWAP1 JUMP JUMPDEST SWAP1 PUSH1 0x0 SWAP2 DUP1 DUP4 MSTORE DUP3 PUSH1 0x20 MSTORE PUSH1 0x40 DUP4 KECCAK256 SWAP2 PUSH1 0x1 DUP1 PUSH1 0xA0 SHL SUB AND SWAP2 DUP3 DUP5 MSTORE PUSH1 0x20 MSTORE PUSH1 0xFF PUSH1 0x40 DUP5 KECCAK256 SLOAD AND PUSH1 0x0 EQ PUSH2 0x1A99 JUMPI DUP1 DUP4 MSTORE DUP3 PUSH1 0x20 MSTORE PUSH1 0x40 DUP4 KECCAK256 DUP3 DUP5 MSTORE PUSH1 0x20 MSTORE PUSH1 0x40 DUP4 KECCAK256 PUSH1 0xFF NOT DUP2 SLOAD AND SWAP1 SSTORE PUSH32 0xF6391F5C32D9C69D2A47EA670B442974B53935D1EDC7FD64EB21E047A839171B CALLER SWAP4 DUP1 LOG4 PUSH1 0x1 SWAP1 JUMP INVALID JUMP KECCAK256 LOG1 GT GASPRICE PUSH19 0xB02A617976B3F6B15600DD7A8B3A916A9CA01E 0x23 GT SWAP14 SWAP9 SWAP11 SDIV NUMBER LOG2 PUSH5 0x6970667358 0x22 SLT KECCAK256 DUP5 DUP16 0xBC 0xB9 POP NOT TIMESTAMP RETURNDATASIZE PUSH2 0xB5E8 0xAF 0xC5 0xD8 AND 0xD4 PUSH22 0xE4FF92FE4C8BBBB37D0775B9A544EF64736F6C634300 ADDMOD OR STOP CALLER "},"methodIdentifiers":{"DEFAULT_ADMIN_ROLE()":"a217fddf","STAFF_ROLE()":"85290fa1","deleteMedicineHash(uint256)":"aaf0063f","deleteReceiptHash(uint256)":"e6fe6d94","deleteRemovalHash(uint256)":"fc9eefb0","deleteStockHash(uint256)":"7c11c9ef","getMedicineCount()":"eadeb84c","getMedicineHash(uint256)":"e96219aa","getReceiptCount()":"040875fc","getReceiptHash(uint256)":"0906a4bf","getRemovalCount()":"fbf6b4e0","getRemovalHash(uint256)":"c4f3f0b3","getRoleAdmin(bytes32)":"248a9ca3","getStaffCount()":"b99b0703","getStaffMembers()":"0bebff06","getStockCount()":"dc08e5ff","getStockHash(uint256)":"de3167ac","grantRole(bytes32,address)":"2f2ff15d","grantStaffRole(address)":"f39df99b","hasRole(bytes32,address)":"91d14854","isStaffMember(address)":"43b7e2f0","medicineCount()":"4dafd490","medicineHashes(uint256)":"c77c01b4","receiptCount()":"7f038f3c","receiptHashes(uint256)":"d237f29b","removalCount()":"35d94dbd","removalHashes(uint256)":"a7d4b8c8","renounceRole(bytes32,address)":"36568abe","revokeRole(bytes32,address)":"d547741f","revokeStaffRole(address)":"55012e17","staffMembers(uint256)":"d8772c12","stockCount()":"8508da5c","stockHashes(uint256)":"16d19e05","storeMedicineHash(uint256,bytes32)":"a021d93a","storeReceiptHash(uint256,bytes32)":"7cb7ce2e","storeRemovalHash(uint256,bytes32)":"eca158c6","storeStockHash(uint256,bytes32)":"1bfd175a","supportsInterface(bytes4)":"01ffc9a7","updateMedicineHash(uint256,bytes32)":"2e6ed699","updateReceiptHash(uint256,bytes32)":"a900ee75","updateRemovalHash(uint256,bytes32)":"330290ae","updateStockHash(uint256,bytes32)":"6b1ec127","verifyMedicineHash(uint256,bytes32)":"c4a2da12","verifyReceiptHash(uint256,bytes32)":"6941281b","verifyRemovalHash(uint256,bytes32)":"933dd781","verifyStockHash(uint256,bytes32)":"2262943a"}}}}}